:4000000000800020110000007D1600007D16000008B5064A136843F020031360044B1A6803F53F5302331A6001F048FBE8460040FA46004010B5054C237833B9044B13B1BC
:400040000448AFF300800123237010BD8882FF1F0000000054340000084B10B51BB108490848AFF300800848036803B910BD074B002BFBD0BDE81040184700BF0000000098
:400080008C82FF1F54340000C880FF1F0000000008B562B645F6BF52054B1A60054A136843F002031360002002F094F8FBE700BF14E000E010E000E000B583B001F086FB89
:4000C00000F092FB642000F0CFFA4FF6FF7000F079FB184B4FF0FF321A6000225A609A60DA6015495961C8211961009202231A460A21124800F0C4FD10B1114801F080FB83
:40010000104801F011F810B10D4801F079FB02F061F90D4A136843F005031360012001F081FB022001F07EFB02F09AF803B05DF804FB00BFE083FF1F1884FF1FF883FF1FEE
:4001400058340000E084FF1F10E000E030B5B7B0424801F055FB012001F01CFE012001F06BFD4A2001F040FB3D4BDD681868B0F1FF3F01D001F0F6FE394BDB689D4218D9D5
:40018000374B1868B0F1FF3F25D002F091F86FF0080324E0324A50695368C45C01A8445401331469B3FBF4F004FB10335360013100E000218D42EDD8294BDA68521BDA60D3
:4001C00000225A609A601868B0F1FF3F06D002F06FF8002303E06FF0080300E000234BB117E036AB234413F8D41C1E4800F0AEFF013400E00024AC42F3D31A4C204600F046
:40020000AFFF204600F0B2FF30B1174801F0F8FA02E0164801F0F4FA33AA124934A801F037F80446A0B9339B062234A9104800F0FBFB10B10F4801F0E3FA002CECD19DF87B
:40024000CD300BB9432000E0442001F0CDFAE3E710F1130F7FF47FAFDEE700BF64340000E083FF1FE084FF1F7034000084340000F883FF1F9434000010B586B01A4801F0A6
:40028000BFFA1F24194800F0C9FB38BB174800F0BBFB23E005AB062203A9144800F044FCC8B99DF815302BB9BDF80E40432001F09BFA13E0012B11D1442001F095FA9DF87D
:4002C00011309DF810209DF80F109DF80E00009400F024FB02E0064801F092FA034800F09DFB0028D6D1CDE7A0340000F883FF1FAC34000008B500BF01F0B2FF08BD00BF0C
:4003000008B5002001F040FC08BD00BF684620F007018D4619B572B6EFF311841E4B1B68DBB20F2B10D9103B23F0030202F1604202F564421168DB0003F01803E0229A40BA
:400340000A4022FA03F306E00F2B03D1134B1B681B0E00E0002383F31188114A136801331360012B01D102F0C9F962B6FFF7C8FF72B684F3118801F0EBFD094A1368013BF2
:4003800013601BB902F0C3F902F087F962B6BDE819408546704700BF04ED00E020ED00E0C88DFF1F30B583B02C4B1B78DBB28DF8073003F0200303F0FF04002B49D0284B20
:4003C0001B788DF80730274B1868B0F1FF3F01D001F0C8FD234AD36801331269934209D9204B1868B0F1FF3F24D001F061FF6FF0070323E01B4AD360002310E0194A506906
:40040000916802AD1D4415F8015C4554916801311569B1FBF5F005FB101191600133002BECD0104B1868B0F1FF3F06D001F040FF002303E06FF0070300E000234BB99DF87E
:40044000073033B9084800F07BFE0121084601F021FC002CA8D103B030BD00BF6E6400404A650040E083FF1FE084FF1F684620F007018D4619B572B6EFF311841E4B1B6828
:40048000DBB20F2B10D9103B23F0030202F1604202F564421168DB0003F01803E0229A400A4022FA03F306E00F2B03D1134B1B681B0E00E0002383F31188114A1368013343
:4004C0001360012B01D102F019F962B6FFF76AFF72B684F3118801F03BFD094A1368013B13601BB902F013F902F0D7F862B6BDE819408546704700BF04ED00E020ED00E08A
:40050000C88DFF1F38B5134B988908B319461C89631C9BB2104AA2FB03525209642505FB12330B810138888101EB44018B7B13B1012B04D006E0002002F01EF802E0012002
:4005400002F01AF8034B03EB4404E07B01F0C8FF38BD00BFA482FF1F1F85EB5130B5ABB01B4B9B89632B17D92AAD032305F8A83D184B1868CDF80100174C0FCCCDF8110024
:40058000CDF81510CDF81920CDF81D30284600F025FA6FF0070019E00D4D6C89621C92B205EB4404A073E1730C49A1FB02014909642000FB11226A8101339BB2AB81012BF9
:4005C00003D1FFF79FFF002000E000202BB030BDA482FF1F143A0000183A00001F85EB512DE9F04180460E4617461D462A210020FFF7B4FF00210120FFF7B0FF194C94F8DA
:40060000D6104144C9B20120FFF7A8FF00210120FFF7A4FF94F8D6103944C9B20120FFF79DFF2B210020FFF799FF00210120FFF795FF94F8D7103144C9B20120FFF78EFF51
:4006400000210120FFF78AFF94F8D7102944C9B20120FFF783FF2C210020FFF77FFFBDE8F08100BFA482FF1F08B5642800D9642001F0AEFF08BD00BF10B50446362100207D
:40068000FFF76CFF04F003002A4B83F8D80003284ED8DFE800F00215283BC2210120FFF75DFF244BA022A3F8DA208022DA8093F8DC2083F8D62093F8DD2083F8D72010BDC1
:4006C000A2210120FFF74AFF1A4BA022DA808022A3F8DA2093F8DC2083F8D72093F8DD2083F8D62010BD08210120FFF737FF114BA022A3F8DA208022DA8093F8DC2083F839
:40070000D62093F8DD2083F8D72010BD62210120FFF724FF074BA022DA808022A3F8DA2093F8DC2083F8D72093F8DD2083F8D62010BD00BFA482FF1F2DE9F0411F46BDF877
:4007400018501F4BB3F90630834236DD90461C4AB2F8DA20914230DA00EB0804013C9C4202DB1B1A0FFA83F87B18013B9A4201DC571A3FB2C0B2C9B2CB19013B00EB08029C
:40078000013ADBB2D2B2FFF72BFF2E0AEDB2012001F0F2FE0FE031460220FFF7DFFE29460220FFF7DBFE013C24B200E04446002CF1DC013F3FB2002FF8DCBDE8F08100BFBA
:4007C000A482FF1F00B583B0064AB2F9DA30B2F90620009000210846FFF7AEFF03B05DF804FB00BFA482FF1FF8B5364B8022DA80A022A3F8DA20002483F8D840A3F8DE405A
:40080000A3F8E04001251D714FF6FF72A3F8E220A3F8E4405D711C6083F8DD4083F8DC4083F8D64083F8D7401C815C819C8101F095FE284601F0ACFE642001F0FFFD2046A0
:4008400001F0A6FE642001F0F9FD284601F0A0FE142001F0F3FD29462046FFF77FFE322001F0ECFD11212046FFF778FE782001F0E5FD0F22144D14E02C4614F8021B002042
:40088000FFF76CFE6A78254606E06E1C29780120FFF764FE22463546531EDCB2002AF4D13A46531EDFB2002AE6D10220FFF7E4FE0020FFF787FF01F0D5FE642001F088FE78
:4008C000F8BD00BFA482FF1FBD340000002821DB114BB3F9063098421CDA00291ADB0E4BB3F8DA30994215DA10B51446C0B2C9B24B1C421CDBB2D2B2FFF772FE012001F0CD
:400900003BFE210A0220FFF729FEE1B20220FFF725FE10BD704700BFA482FF1F2DE9F04F83B005460E461746BDF830200092C1EB0308B8F1000FB8BFC8F10008C0EB070942
:40094000B9F1000FB8BFC9F10009C84504DD3A461F4613460D460646BD4205DD32461E4613462A463D461746C5EB070B1FFA8BFB0FFA8BF4C6EB030ABAF1000FB8BFCAF1C0
:40098000000A04EBD47464109E4202DA012301931EE04FF0FF3301931AE0C84505DD009A29463046FFF792FF04E0009A31462846FFF78CFFCAEB0404A3B21CB2002C05DA4D
:4009C000019A164436B20BEB030424B201352DB2BD42E2DD03B0BDE8F08F00BF10B50446013000F00DFF064800F00AFF04F1110000F006FF034800F003FF002010BD00BF77
:400A0000383A00009034000010B50446406901F0C1F9606901F010F9002010BDC3680069181A80B2704700BFF0B5ADB004460D461746ADF80430FFF7F1FFA38898424CD221
:400A4000E06908B101F08EFA72B6F9B22368E28853F83260322F14D92CAF032307F8A83D2E4B1868CDF8090048222D490DF1190002F01EF83846FFF7B1FF32216FF014076C
:400A800000E00027002303E0EA5CF25401339BB28AB29342F8D32368E18803EBC1039A802368E28803EBC203BDF80420DA80E38801339BB2A188B3FBF1F201FB1233E3805B
:400AC000E3680133E36062B6E06908B101F0F0FB6169A06901F0DEF81DE02CAD032305F8A83D0E4B1868CDF809000E4C0FCCCDF81900CDF81D10CDF82120CDF8253007CC27
:400B0000CDF82900CDF82D10CDF831202846FFF765FF6FF0070738462DB0F0BD3C3A0000403A0000883A00002DE9F041AAB007460D4614469846FFF771FF00284AD03A68FD
:400B4000398902EBC103988852F83160DB88A8F80030A0421ED02AAD032305F8A83D304B1868CDF801002F4C0FCCCDF81100CDF81510CDF81920CDF81D3007CCCDF8210085
:400B8000CDF82510CDF829202846FFF727FF6FF0130041E0F86908B101F0E4F972B6002303E0F25CEA5401339BB2A342F9D33B8901339BB2B988B3FBF1F201FB12333B8128
:400BC0003B6901333B6162B6F86920B301F070FB002021E02AAD012305F8A83D104B1868CDF80100104C0FCCCDF81100CDF81510CDF81920CDF81D300FCCCDF82100CDF8AD
:400C00002510CDF82920CDF82D302846FFF7E6FE6FF0080000E000202AB0BDE8F08100BF3C3A0000A43A0000C03A000010B5ACB00F4B984202D30F4B984216D902462CAC36
:400C4000032304F8A83D0C4B1868CDF80900094B0093074B09490DF1190001F0F7FF2046FFF7BCFE6FF0030000E000202CB010BD6892FF1F007800203C3A00006C3B000051
:400C8000F0B5ABB0064642618361309BC36100230361C3600381C380012901D9818001E00A238380B088C00001F0FAFE306000283BD0002434E0336803EBC40300229A8083
:400CC0003568322001F0ECFE45F83400336853F83400FFF7ABFF08B32AAF032307F8A83D144B1868CDF80100134D0FCDCDF81100CDF81510CDF81920CDF81D3007CDCDF817
:400D00002100CDF82510CDF829202A88AB78ADF82D208DF82F303846FFF760FE0134A4B2B3889C42C7D3002001E06FF003002BB0F0BD00BF3C3A0000A83B0000436893424C
:400D40000AD25A1C426001EB03104FF0FF33836043600023C3607047002070470170426083600023C360704770B506681DE0202C21D006D8092C0ED30A2C1CD90D2C0AD1C2
:400D800019E03A2C17D002D82C2C04D113E05D2C11D07D2C0FD0203CE4B25E2C03D906606FF0010070BD013505600568954202D24C5D002CDBD11BB9013D0560002070BDBE
:400DC00019460446049AFFF7B9FF18B926604FF0FF3070BD236832460821FFF7BFFF2368013B2360002070BDF8B50668741C04607AE0222D13D1002B00F081801946044634
:400E0000069AFFF79BFF18B926604FF0FF30F8BD2368721C0421FFF7A1FF0020F8BD5C2D5FD10134A2425CD904600D5D223D532D53D8DFE805F0565252525252525252528C
:400E400052525256525252525252525252525252525252525252525252525252525252525252525252525252525252525252525256525252525256525252565252525252E2
:400E80005252565252525652562A013404604FF0000E15E0A5F13007FFB2092F0CD9A5F14107FFB2052F07D9613DEDB2052D03D906606FF00100F8BD013404600EF1010E94
:400EC000BEF1030F05DC0468A24202D90D5D002DE0D10468013C046003E006606FF00100F8BD0468013404600468944203D20D5D002D7FF47EAF06606FF00200F8BD002083
:400F0000F8BD00BF2DE9F04782B00646884617461D46DDF828A0D0F80490D1E02C2C00F092800ED80D2C00F0C88004D8093C012C40F2C380ABE0202C00F0BF80222C66D03C
:400F4000A5E05D2C2DD004D83A2C78D05B2C05D09DE07B2C02D07D2C23D098E009F10109002D00F0AA80524629463046FFF7E6FE0146002800F0BF80B368B3F1FF3F04D065
:400F800005EB0313DA680132DA607B2C01D1012300E002230B7033684B607368013BB3608BE0002D00F089807D2C01D1012400E002247368013B14E005EB03125068B0F14F
:400FC000FF3F0DD09068B0F1FF3F09D11078844240F094804FF0FF30B0600131916002E0013B002BE8DAB3F1FF3F0DD189E005EB03125168B1F1FF3F05D09268B2F1FF3F70
:4010000001D1B36059E0013B002BF0DA55E0CDF800A02B463A4641463046FFF7E5FE002876DB09F10109B368B3F1FF3F45D0002D43D005EB0313DA680132DA603DE0736884
:40104000013BB36039E0002D37D0B368B3F1FF3F33D01B01EB5C022B2FD0012B2DD07268013A11E01301E918EB5C013BDBB2012B09D84B68B3F1FF3F05D08B68B3F1FF3FA5
:4010800001D1B26019E0013A002AEBDA15E0CDF800A02B463A4641463046FFF765FE002836DB09F10109B368B3F1FF3F05D025B105EB0313DA680132DA603368013333608C
:4010C0003168B94204D218F80140002C7FF426AFD5B17368013B0AE005EB03125168B1F1FF3F03D09268B2F1FF3F0FD0013B002BF2DA48460CE04FF0FF3009E06FF00100AB
:4011000006E06FF0010003E0484601E06FF0020002B0BDE8F08700BF0023036043604FF0FF338360704700BF10B50446FFF7F4FF0020A4F8D608A4F8D408A4F8D80810BDE3
:4011400008B5FFF7F1FF002008BD00BFB0F8D438C21811730133A0F8D4380020704700BFB0F8D438034400201873704710B582B004460023A0F8D638B0F8D4288023009367
:4011800000F1D40300F10C01FFF7BCFE002803DBA4F8D808002001E06FF0180002B010BDB0F8D638B0F8D828934210D230B404460D460D3300EB031304330FCB85E80F00DC
:4011C000B4F8D6380133A4F8D638002002E06FF00500704730BC704710B50446234901F059FD50B32249204601F054FD38B32149204601F04FFD28B31F49204601F04AFDE6
:4012000018B31E49204601F045FD00B31C49204601F040FDF0B11B49204601F03BFDE0B11949204601F036FDD0B11849204601F031FDC0B940F6214010BD1F2010BD4FF691
:40124000FF7010BD4FF4784010BD002010BD4FF4FC6010BD4FF6E07010BD40F2FF7010BD40F23D2010BD1F2010BD00BF183C00001C3C0000243C00002C3C0000343C000036
:401280003C3C0000443C00004C3C0000543C00002DE9F04389B0002900F098800D46002800F09780002A00F0978090460746B1F8D64804A92846FFF773FF002840F08F80E4
:4012C0009DF81030042B40F08D80059A069B9B1A9BB2012B04D0A5F8D6486FF012098CE02A44137B632B29D104A92846FFF758FF8146E8B99DF81030042B1CD1059A069B45
:401300009B1ADCB20832A91822460431684601F0CFFB08AB1C44002304F8203C88F8003088F801303B706846FFF756FF788064E06FF0050961E06FF014095EE0642B40D192
:4013400004A92846FFF72CFF814600284DD19DF81030022B4CD1079B042B4CD1002626E004A92846FFF71CFFD8B99DF81030082B1AD10599069C641AA4B208312944224619
:401380000431684601F094FB08AB1C44002304F8203C684601F054FBBB1998700136F6B205E06FF0050928E06FF0140925E0032ED6D9002388F80030012388F801303B7085
:4013C0001BE0A5F8D6486FF0120916E06FF0130913E06FF0130910E06FF013090DE06FF005090AE06FF0120907E06FF0050904E06FF0140901E06FF01409484609B0BDE8B8
:40140000F08300BFFEE700BFF0B40022174611E050F82760F3B226F0FF0608E001EB420511F812406D78A5550132013BDBB2002BF4D10137252FEBD9F0BC7047064B1B785B
:40144000DBB203F00701054A11701B09013213704422034B1A707047CF0100496E5800407658004008B50A46002101F02CFB08BD38B50222284B1A80182328490B7019258A
:4014800002310D8002310B7040F65F100231088002310B70224B1A7008224FF040231A70032103F5007319701E4B1B78DBB21E490B701E4B1A8041F25122023B1A8000243C
:4014C0000CE01B4B1B7803F0010343EA440404F003044FF4F07001F097F9013D0DB1032CEFD115B90320FFF78DFF124B4FF480721A8007221A7000220F490A7048200231B0
:4015000008701A700222033B1A700C4A137843F00703137038BD00BF80400040824000400043004008010049A146004022420040254200400440004006400040A2430040F0
:4015400008B501F0B5FA08BD38B572B6384A137843F02003137000240CE0364D630019194A0011462A44084691882858FFF77AFF0134E4B2072CF0D900240BE02D48A200D4
:4015800011194B0003441A8F596B186BFFF7D8FF0134E4B2022CF1D927494FF09040FFF733FF264A137843F0020313701032137843F002031370224C237843F040032370F8
:4015C000A2F58632513A137843F01003137008221C491D48FFF7B4FF0A221C491C48FFF7AFFF08221B491C48FFF7AAFF08221B491B48FFF7A5FF08221A491B48FFF7A0FFE6
:401600001A4A137843F008031370194D61232B70FFF72EFF81232B700122164B1A70FFF70DFF0E2221461448FFF78AFF38BD00BFE84600405C3C0000980000480350014063
:40164000A0430040240D0048025100402C0D0048C0510040380D004812510040400D004822510040480D004832510040224300400048004004000840B043004008B501F037
:40168000E3F903680C2B00D1FEE7FEE708B5094B1A681044084BC31AB3F5A06F02DC054B186005E001F0D0F90C2303604FF0FF32104608BDCC80FF1F6892FF1F08B5104E44
:4016C000104D16E029686B68AC68002204E051F8040B43F8040B0432A242F8D1E868002203E0002143F8041B04328242F9D11035013E002EE6D101F0ADF9FEF7C9FCFEE761
:40170000010000004040000008B5104A104B1A60104A136843F40073136000230AE0032B03D80D4A52F8231000E00C490C4A42F8231001332F2BF2D90A4B1A780A4B1A7049
:40174000074A0A4B1A60FFF7FFFE08BD0004FA050CED00E014ED00E0000000007D1600000080FF1FBC760040C080FF1F08ED00E07222074B1A702022FC3B1A700622673BC1
:401780001A70472210331A70022251331A7070478A65004010B501F03FF804460A4A137843F020031370FC3A137843F010031370063A137843F01003137000F02FFE2046C1
:4017C00001F02EF810BD00BF9A65004008B5054B1B7823B9FFF7CCFF0122024B1A70FFF7D9FF08BD8A83FF1F034B1B7813F0040FFAD1024B187070476864004048650040CB
:4018000038B5074B1B782BB938BDFFF7EDFF0134A4B201E005460024285D0028F5D138BD8A83FF1F38B5EFF3108572B603284ED82D4B53F82030002B4BD02B4A013B42F88C
:4018400020302A4B53F82030032B07D10222274B43F820200022264B43F8202000F03CFC244B1B68002B36D1234B1C6800F012FCB0F1FF3F31D0214B53F82020204B1B68E2
:401880009A422CD9B4F1FF3F03D00221174A42F824101C4A52F820201343194A13600022124B43F8202000F0B1FB174B53F820304BB10024144B43F8204040F0004000F076
:4018C0002FFF20460CE000F02BFF002008E0032006E0042004E0002002E0002000E0002085F3108838BD00BF2481FF1FC881FF1FB483FF1FC88DFF1FB481FF1F343E000098
:40190000CC83FF1F143E00009483FF1F18B108B5C368984708BD704708B508B1406800E00020032816D80C4B53F8203093B10A4A013B42F82030094B53F82030032B07D12B
:401940000222064B43F820200022054B43F8202000F0C2FB08BD00BF2481FF1FC881FF1FB483FF1F18B1034640689B6801E00023184603281DD80F4A52F82020CAB10E4AE5
:4019800052F82010032914D010B50C4C54F820201A4344F820200A4A52F82020134207D0012905D10222044B43F8202000F094FB10BD7047F43D0000C881FF1FB483FF1F33
:4019C000A483FF1F80B108B50378012B06D013B1032B06D008BDFFF79FFF08BDFFF7C2FF08BDFFF793FF08BD704700BF30B400EB40029300214AD258214B03EBC2035C68F6
:401A0000B4F1FF3F04D11E4B03EBC20250602DE01C4B03EB04139B6899420AD2184D05EBC2025060174A02EB04125B1A93601DE01C46144B03EB04139A68891ADB68B3F10C
:401A4000FF3F05D00F4A02EB031292689142EFD2B3F1FF3F05D00B4A02EB031295686D1A9560084A02EB0414E0601C46054B03EB00108160C46030BC704700BFCC3D00002C
:401A8000D480FF1FB88EFF1F38B5394A02EBC0035C6852F83030013342F8303000EB40018A0034498A58934203D90022304B43F83020B4F1FF3F59D02F4B03EB04139B6878
:401AC000002B4ED1214600E019462B4B03EB0113DB68B3F1FF3F05D0274A02EB03129268002AF1D0244A02EB01114FF0FF32CA601F4A02EBC0004360B3F1FF3F07D01E4A4B
:401B000002EB03139A68013A9A6000E02C4604EB44029300194A13441B7A7BB904EB44029300164A13445A68154B53F8223003EB83039A0013481044FFF744FF0E4B03EB53
:401B40000413DD68596821B101392046FFF74EFF03E024010022084B1A51B5F1FF3FD5D138BD054A02EB0414013BA36038BD00BFD480FF1FE03D0000B88EFF1FCC3D0000E9
:401B8000DC3D0000B83D000038B5EFF3108572B6002838D1FFF778FF204B1B68002B34D11F4B1C6800F076FAB0F1FF3F2FD01D4B53F820201C4B1B689A422AD9B4F1FF3F04
:401BC00003D00221194A42F82410194A52F820201343154A13600022144B43F8202000F015FA144B53F820304BB10024114B43F8204040F0004000F093FD20460AE000F0CD
:401C00008FFD002006E0032004E0002002E0002000E0002085F3108838BD00BFC88DFF1FB481FF1F343E0000CC83FF1FC881FF1F143E00009483FF1FEFF3108372B6114A9A
:401C40001168114A126882B9B1F1FF3F0FD00F4A52F821206AB110B40D4C54F8212022EA000044F82100002007E0022002E0022000E0012083F31088704783F3108810BC3D
:401C8000704700BFB481FF1FC88DFF1FF43D0000B483FF1F38B5EFF3108472B6032853D8324B53F82030002B50D0314B53F82030032B4DD02F4D55F820200A4345F82020E9
:401CC0002D4A52F82020114244D0012B44D10222274B43F8202000F0FFF9284B1B68002B3CD1274B1D6800F0D5F9B0F1FF3F37D0244B53F82020244B1B689A4232D9B5F100
:401D0000FF3F03D002211A4A42F825101F4A52F8202013431C4A13600022154B43F8202000F074F91A4B53F820304BB10025184B43F8205040F0004000F0F2FC284612E043
:401D400000F0EEFC00200EE003200CE001200AE0072008E0002006E0002004E0002002E0002000E0002084F3108838BDF43D0000C881FF1FB483FF1FA483FF1FC88DFF1F7D
:401D8000B481FF1F343E0000CC83FF1F143E00009483FF1F38B5EFF3108472B63A4B1D683A4B1B68002B63D1B5F1FF3F62D0384B53F82530B3F1FF3F5ED1364B53F8253003
:401DC000002B5BD0344B53F82530034258D1334B43F825000122324B43F82520314B53F8250031490B6823EA00030B602F4B43F825202F4B53F82520234B1A6000F04AF98F
:401E0000B0F1FF3F06D02B4B53F82020264B1B689A420DD81C4B1868B0F1FF3F03D000221F4B43F8202040F0004000F079FC1AE000211B4A42F820101A4A52F82020134394
:401E4000194A136000F0E2F8184B53F8203043B10022164B43F8202040F0004000F060FC01E000F05DFC00200C4B43F8250008E0022006E0022004E0062002E0012000E016
:401E8000002084F3108838BDB481FF1FC88DFF1FE480FF1FF43D0000B483FF1FA483FF1FC881FF1F143E0000CC83FF1F9483FF1FB881FF1F343E000008B500F0A7F8084B28
:401EC00053F8203043B10022054B43F8202040F00040044B186008BD024B186008BD00BF9483FF1FCC8DFF1F10B500F0D3F8124B1B68B0F1FF3F1AD0104A52F82010104A1E
:401F00001268914213D9B3F1FF3F03D002240D4941F8234000210B4B43F820100A4B53F820301A43064B1A60FFF7C6FF10BD43F00043064A136010BDB481FF1F343E00004E
:401F4000CC83FF1FC881FF1F143E0000CC8DFF1F034B1B6813B10022014B1A60704700BFBC8DFF1F204B1A68204B1968EFF3108372B6012829D830B41D4C54F8204044BBD2
:401F800051B9B2F1FF3F26D01A4C54F822501A4C54F82040A54220D809BB184951F82250174C44F8205041F822000121104A42F8201014490C68144A42F820400E4A52F890
:401FC000202022430A6000200AE0032083F310887047012004E0012002E0012000E0012083F3108830BC7047B481FF1FC88DFF1F8C83FF1F343E0000EC3D0000E480FF1FF5
:40200000DC80FF1FCC83FF1FC88EFF1FF0B4184B19880B0A174AD356B3F1FF3F01D1535601E008335BB2144D55F82320134850F82200134E56F8224045F82340114D2F681C
:4020400046F822702A60B4F1FF3F09D10E4A42F82340012202FA03F321EA0301044B19800A4B19680A4A42F820101860F0BC7047C883FF1FAC3C00007481FF1F988EFF1F31
:402080000481FF1FC483FF1F3481FF1FB481FF1FB881FF1F0C4B1A88130A0C49CB56B3F1FF3F01D18B5601E008335BB2B3F1FF3F06D0074A52F82320064B53F82200704746
:4020C0004FF0FF30704700BFC883FF1FAC3C00007481FF1F988EFF1F30B4144B53F82020134C2368134951F823502560124C44F823004FF0FF3441F82340104951F8221060
:40210000A1420AD10E4951F820400E480188214301800D4941F8223002E0064840F82130064941F8223030BC704700BF1481FF1FC483FF1F0481FF1F988EFF1F3481FF1F75
:40214000343E0000C883FF1F7481FF1F10B150F8210070474FF0FF30704700BF0122014B1A60FEE7C48DFF1F70B50546124B53F8306000241CE0104B03EBC503214658686F
:40218000FFF7E4FF0D4A52F82030013B42F820300B4B53F82030032B07D10222084B43F820200022074B43F82020FFF795FF0134B442E0D370BD00BFAC3D00002481FF1FB7
:4021C000C881FF1FB483FF1F18B908B5FFF7CCFF08BD7047194B1A4ADA621A4A9A631A4ADA63EFF3108272B6184B1B6813BB10B5044600F0EFF8164B1C600122134B1A6044
:402200002046FFF7E1FFFFF745FFB0F1FF3F0ED0104B53F82030104A11680B43136000220E4B43F82020FFF7F1FE00F079FA62B6FFF794FF82F31088072070470080FF1F79
:40224000E1260000A52600000D030000C48DFF1F6090FF1F143E0000CC83FF1FC881FF1F08B5EFF3108272B60D4B19680D4B1B6863B90D4B53F82130B3F1FF3F08D14FF0C2
:40228000FF300A4B43F82100002002E0022000E0062010B9084600F09CFA82F3108808BDB481FF1FC88DFF1FE480FF1FF480FF1F70B53C4B1A683C4B1B68EFF3108572B6F4
:4022C00001285BD8394951F82010002958D0384951F82210884255D153B9B2F1FF3F53D0344C54F82260344C54F82040A6424DD8002B4DD1314C54F821402D4941F822402F
:4023000000212A4A42F820102D4A52F820102D4A1160002B3ED1234B1C68FFF7BBFEB0F1FF3F39D0234B53F82030264A1268934234D9B4F1FF3F03D00221234B43F8241077
:40234000224B53F8203013431E4A136000221E4B43F82020FFF75AFE1D4B53F820304BB100241B4B43F8204040F0004000F0D8F9204614E000F0D4F9002010E003200EE043
:4023800005200CE005200AE0012008E0012006E0012004E0002002E0002000E0002085F3108870BDB481FF1FC88DFF1F8C83FF1FE480FF1F343E0000EC3D0000DC80FF1FFF
:4023C000C88EFF1FCC83FF1FC881FF1F143E00009483FF1F38B50D4B1D68EFF3108472B600F04EF90A4A136843F07F431360094B6B640421012000F037F8074A136843F0B1
:402400000203136084F3108838BD00BF08ED00E020ED00E06D04000000E100E0054A137843F0020313701032137843F002031370704700BFA243004001BE704710B5044630
:4024400005E0084B186800F0DFF9A4F50044B4F5004FF6D8034B586800FB04F000F0D4F910BD00BF0882FF1F38B504460D46072902D90020FFF7E0FF1F2C02D90020FFF785
:40248000DBFF04F01F0000F1604000F564406D01EDB2057038BD00BF08B500F0BDF9094A137843F0200313700732137843F010031370FC32137843F01003137000F0B0F90D
:4024C00008BD00BF94640040014B1878704700BF6B640040014B1878704700BF67650040034B1B7813F0040FFAD0024B187070476B6400404765004008B501E00A4B1B7893
:402500000A4B1B7813F0200FF8D100F085F9084B1A7842F001021A701A7802F0FE021A7000F07EF908BD00BF57650040676500409765004008B50F22064B1A70FFF7DCFFCF
:40254000FFF7C2FFFFF7C6FF0023034A1370FC32137008BD846400408B64004008B5054B1B7823B9FFF7E6FF0122024B1A70FFF793FF08BDD483FF1F044A137803F0F70350
:40258000C00000F00800184310707047C0510040044A137803F0EF03000100F0100018431070704730510040024A137843F080031370704776640040014B1870704700BF43
:4025C00006640040014B1870704700BF46640040014B1870704700BF26640040014B1870704700BF86640040014B1878704700BF66640040014B1878704700BF56640040CD
:4026000008B501E0FFF7F6FFFFF7EEFF10F0100FF8D108BD10B5114A137803F0C00343F0090313700E4C237843F0010323706420FFF7C2FF6420FFF7C5FF3220FFF7C8FF17
:402640000020FFF7CBFF00F0E7F8237843F01003237000F0E5F8FFF7D3FF10BD766400409664004008B5054B1B7823B9FFF7D2FF0122024B1A70FFF797FF08BDD583FF1F7D
:4026800018484FF47F0102680A43026016486FF07F4102680A400260704714484FF080510160704772B611484FF000610160FFF71BFC0F48006800F003F958B10C48006811
:4026C0004FF080730B4A0C490FB40FB46FF00600004700BF6FF0060062B6004762B600DF08B0704720ED00E01CED00E004ED00E0CC8DFF1F21270000DD260000EFF3088010
:40270000054908600548006880F3088870470248006880F3088870471882FF1FF881FF1F411C8900154A11440968154A136899421AD0F0B444464D4656465F46F0B400B5B4
:40274000104C9B002344EFF308851D60116089002144096881F3088802BC8E46F0BCA046A946B246BB46F0BC002806DB00B500F09BF802BC8E46FFF7D3BF7047643E0000CF
:40278000D083FF1FFC81FF1FF0B444464D4656465F46F0B400B5EFF3038308B48000174901440968164A0244EFF30883136088471448804704BC4FF08070024382F303884C
:4027C00001BC8646F0BCA046A946B246BB46F0BC704780000A4901440A6882F3088804BC4FF08070024382F3038808BC9E46F0BCA046A946B246BB46F0BC7047443E0000A9
:40280000A88EFF1F292800000230800803D000BF01380046FCD17047EFF3108072B6704780F31088704700BF10B572B6034B1C68204600F00DF82046FFF7CBFFB481FF1F3F
:4028400008B5024B1868FFF79FFF08BDB481FF1F10B4104B53F820304FF0FF310BE00E4A52F823200B4941F8202000240B4941F8234019461346B3F1FF3FF0D1B1F1FF3F0D
:4028800004D0074B53F82120064B1A60084610BC704700BFE480FF1FDC80FF1F8C83FF1FC88EFF1FCC83FF1F08B562B6FFF7C8FF72B600F041F8014B186808BDCC8DFF1F16
:4028C00000280BDA20F000400130054B53F82000044B1B68181A18BF0120704701207047643E0000D083FF1F054B53F82020054B53F820309A4201D10120704700207047CE
:402900002481FF1F043E000008B5FFF77FFB084B53F8203043B10022054B43F8202040F00040044B186008BD024B186008BD00BF9483FF1FCC8DFF1F38B5364B1C68002291
:40294000354B1A60354A52F82430013342F82430334B53F824502046FFF7C6FF012801D0A54204D103222F4B43F8242003E002222C4B43F824202C4B53F824102B4A136869
:4029800023EA010313602A4B53F82440214B1C60B5F1FF3F0FD0234B53F82530032B07D10222204B43F825200022224B43F825202846FFF791FBFFF76DFBB0F1FF3F0BD189
:4029C000B4F1FF3F03D00022164B43F8242044F00044194B1C6038BD184B53F82020134B1B689A4208D800220E4B43F8242044F00044114B1C6038BD00210A4A42F8201029
:402A0000094A52F820201343084A1360FFF77CFF38BD00BFB481FF1FBC8DFF1F2481FF1FF480FF1FC881FF1F143E0000CC83FF1FB881FF1FB483FF1FCC8DFF1F343E0000AF
:402A40000A22002100F0B6B9014B1868704700BF7C82FF1F0E4B70B51E460E4C0025E41AA410A54204D056F8253098470135F8E701F0D4FA084B094C1E46E41AA410002545
:402A8000A54204D056F8253098470135F8E770BD28400000284000002840000030400000024B0146186800F063B800BF7C82FF1F10B5431E0A44914204D011F8014B03F88A
:402AC000014FF8E710BD03460244934202D003F8011BFAE77047000038B50546002944D051F8043C0C1F002BB8BFE41800F06CF91E4A1368114613B96360146030E0A342A7
:402B00000DD92268A018834201BF18685B681218226063600C6023E0A24203D813465A68002AF9D118681918A1420BD12168014458188242196013D110685268014419603A
:402B40005A600DE002D90C232B6009E021686018824201BF106852680918216062605C602846BDE8384000F030B938BDDC83FF1F70B5CD1C25F0030508350C2D38BF0C25BA
:402B8000002D064601DBA94202D90C23336046E000F01AF9234B1C681A462146A1B10B685B1B0ED40B2B03D90B60CC18CD501EE08C420BBF63684B681360636018BF0C4648
:402BC00015E00C464968E9E7174C23681BB9304600F02CF820602946304600F027F8431C18D0C41C24F00304A0420DD12560304600F0EBF804F10B00231D20F00700C31A49
:402C00000ED05A42E25070BD211A304600F00EF80130EBD10C233360304600F0D6F8002070BD00BFDC83FF1FD883FF1F38B5064C0023054608462360FEF728FD431C02D165
:402C4000236803B12B6038BD6492FF1F0EB400B54FF402719CB0ADF814106FF00041049107914FF6FF711DAB02900690084853F8042BADF81610006802A9019300F000F9A8
:402C8000029B00221A701CB05DF804EB03B070477C82FF1F10F8012B11F8013B012A28BF9A42F7D0D01A70472DE9F0470F4680463F48D0F800903D4615F8014B09EB04004B
:402CC000407800F0080000F0FF0608B12F46F2E72D2C03D1BD1C7C78012603E02B2C04BF7C78BD1C13B1102B0AD15BE0302C57D1287800F0DF0058284DD16C781023023549
:402D0000002E14BF4FF0004C6FF0004CBCFBF3FA0027384603FB1ACC09EB040E9EF801E01EF0040F01D0303C0BE01EF0030E1BD0BEF1010F0CBF4FF0370E4FF0570ECEEBF4
:402D40000404A34210DDB7F1FF3F0AD0504506D801D1644503DC03FB0040012701E04FF0FF3715F8014BD7E77B1C0CD1002E4FF0220314BF4FF000406FF00040C8F8003032
:402D80002AB9BDE8F08706B1404272B107B1691E1160BDE8F0873024002BB1D10823AFE70A23ADE7302CA3D0AAE7BDE8F08700BF8082FF1F13460A46014602480068FFF776
:402DC00073BF00BF7C82FF1F704770472DE9F0478E6882469E420C46914698463ED88A8912F4906F3AD02568096902236F1A656905EB450595FBF3F57B1C43449D4238BF0D
:402E00001D4653050FD52946FFF7B2FE064698B13A462169FFF74CFEA38923F4906343F08003A38113E02A4600F0E3FA064670B921695046FFF750FE0C23CAF80030A38999
:402E40004FF0FF3043F04003A381BDE8F08726613E44266046466561ED1BA560464528BF464649463246206800F0A8FAA36800209B1BA36023681E442660BDE8F0870000AE
:402E80002DE9F04F9DB003938B8980461C060D4616460DD50B695BB94021FFF769FE2860286118B90C23C8F80030CDE040236B610023099320238DF82930DFF89CB13023D3
:402EC0008DF82A3037463C4614F8013B1BB9B7EB060910D003E0252BF9D02746F3E74B46324629464046FFF771FF013000F0A780099B4B4409933B78002B00F0A080002378
:402F00004FF0FF3204930793059206938DF853301A930126052221784E4800F041FA671C049B38B14B4A3C46801A06FA00F018430490EFE7D90644BF20228DF853201A07B5
:402F400044BF2B228DF8532022782A2A03D0079A00210A200BE0039A111D12680391002A10DA524243F00200079204900BE027463B780134303B092B03D800FB0232012183
:402F8000F5E701B107923B782E2B1ED17B782A2B0AD1039B02371A1D1B680392002BB8BF4FF0FF33059310E0002319460593781C0A2407463A780130303A092A03D804FB88
:402FC00001210123F5E703B1059103223978224800F0E6F940B14023CBEB000003FA00F0049B013718430490397806221B487E1C8DF8281000F0D4F988B1194B33B9039B22
:40300000073323F007030833039314E003AB00932A46144B04A94046AFF3008007E003AB00932A460F4B04A9404600F093F8B0F1FF3F824603D0099B5344099342E7AB89C1
:403040005B0601D4099801E04FF0FF301DB0BDE8F08F00BFE73F0000ED3F0000F13F000000000000CD2D00002DE9F04791461F460A698B6806469342B8BF1346C9F800302D
:4030800091F843200C46DDF8208012B10133C9F800302368990642BFD9F800300233C9F80030256815F0060510D104F1190A07E00123524639463046C04701301AD001359D
:4030C000E368D9F800209B1A9D42F1DB94F843302268003318BF012392060FD5E118302081F843005A1C94F845102244023382F8431003E04FF0FF30BDE8F08704F1430296
:4031000039463046C0470130F4D02268D9F80050E36802F00602042A08BF5D1B2269A3680CBF25EAE57500259342C4BF9B1AED184FF000091A344D4509D001232246394634
:403140003046C0470130D5D009F10109F3E70020BDE8F0872DE9F04317460A7E85B06E2A984606460C460C9B01F1430E00F0AE8011D8632A22D009D8002A00F0BB80582A43
:4031800040F0CA8081F84520834955E0642A1ED0692A1CD0C0E0732A00F0B08009D86F2A2ED0702A40F0B8800A6842F020020A603EE0752A24D0782A3AD0ADE01A6801F156
:4031C0004205111D1960136884F84230A8E021681A6811F0800F02D0111D196008E011F0400F02F10401196002D0B2F9003000E01368002B3CDA2D225B4284F8432037E008
:4032000021681A6811F0800F02D0111D196007E011F0400F02F10401196001D0138800E01368227E5C496F2A14BF0A2208221BE078225A4984F845202268186812F0800F50
:4032400000F104051D6003D1550601D5038800E00368D00744BF42F0200222601BB9226822F0200222601022002084F8430001E049490A226568002DA56008DB206820F00E
:40328000040020602BB9002D7DD175460CE0002B79D07546B3FBF2F002FB1033CB5C05F8013D03460028F5D1082A0BD12368DA0708D5236962689A42DEBF302305F8013C39
:4032C00005F1FF35C5EB0E0323612EE008681A6810F0800F496903D0101D1860136808E010F0400F02F104001860136801D0198000E0196000232361754616E01A68111D3F
:403300001960156800216268284600F049F808B1401B6060636804E004F1420584F8422001232361002384F84330CDF800803B4603AA21463046FFF797FE013002D14FF098
:40334000FF3026E023692A4639463046C0470130F5D023689B0710D5002504F1190907E001234A4639463046C0470130E7D00135E368039A9B1A9D42F2DBE068039B98421E
:40338000B8BF184605E00B7804F1420584F842308AE705B0BDE8F083F83F00000940000010B5C9B202449042034605D01C7801308C42F8D1184610BD002010BD884210B56F
:4033C00001EB020301D8421E0BE09842FBD28118D21AD34204D013F8014D01F8014DF8E710BD994204D011F8014B02F8014FF8E710BDF8B5074615460E4621B91146BDE8DE
:40340000F840FFF7B5BB1AB9FFF766FB2846F8BD00F015F885420ED929463846FFF7A8FB044650B131462A46FFF742FB31463846FFF752FB01E03046F8BD2046F8BD51F863
:40344000040C0028BEBF091851F8043CC01804387047000000000000494E4954204641494C0A00004A534F4E205441534B0A00004552524F5220494E2050415253453A0AF1
:403480000000000052454144204641494C45443A0A00000053454E44204641494C0A0000544654205441534B0A0000004641494C454420544F204452415700000FB10305AE
:4034C0003C3CB203053C3CB306053C3C053C3CB40103C003280804C101C0C2020D00C3028D2AC4028DEEC5011A3601C0E0100422070A2E30252A28262E3A00010313E10F48
:4035000016060D2D26232727252D3B000104133A0105290000000000003E5B4F5B3E3E6B4F6B3E1C3E7C3E1C183C7E3C181C577D571C1C5E7F5E1C00183C1800FFE7C3E746
:40354000FF0018241800FFE7DBE7FF30483A060E2629792926407F050507407F05253F5A3CE73C5A7F3E1C1C08081C1C3E7F14227F22145F5F005F5F06097F017F0066890B
:40358000956A606060606094A2FFA29408047E040810207E201008082A1C08081C2A08081E101010100C1E0C1E0C30383E3830060E3E0E06000000000000005F00000007F9
:4035C000000700147F147F14242A7F2A12231308646236495620500008070300001C2241000041221C002A1C7F1C2A08083E08080080703000080808080800006060002097
:40360000100804023E5149453E00427F400072494949462141494D331814127F1027454545393C4A49493141211109073649494936464949291E000014000000403400009C
:4036400000081422411414141414004122140802015909063E415D594E7C1211127C7F494949363E414141227F4141413E7F494949417F090909013E414151737F08080849
:403680007F00417F41002040413F017F081422417F404040407F021C027F7F0408107F3E4141413E7F090909063E4151215E7F09192946264949493203017F01033F40403D
:4036C000403F1F2040201F3F4038403F631408146303047804036159494D43007F4141410204081020004141417F04020102044040404040000307080020545478407F2800
:403700004444383844444428384444287F385454541800087E090218A4A49C787F0804047800447D40002040403D007F1028440000417F40007C047804787C080404783855
:4037400044444438FC1824241818242418FC7C08040408485454542404043F44243C4040207C1C2040201C3C4030403C44281028444C9090907C4464544C4400083641000F
:403780000000770000004136080002010204023C2623263C1EA1A161123A4040207A385454555921555579412254547842215554784020545579400C1E5272123955555527
:4037C00059395454545939555454580000457C410002457D420001457C407D1211127DF0282528F07C545545002054547C547C0A097F4932494949323A4444443A324A482A
:4038000048303A4141217A3A42402078009DA0A07D3D4242423D3D4040403D3C24FF2424487E4943662B2FFC2F2BFF0929F620C0887E090320545479410000447D4130486D
:40384000484A32384040227A007A0A0A727D0D19317D2629292F28262929292630484D4020380808080808080808382F10C8ACBA2F102834FA00007B000008142A14222259
:40388000142A14085500550055AA55AA55AAFF55FF55FF000000FF00101010FF00141414FF001010FF00FF1010F010F0141414FC001414F700FF0000FF00FF1414F404FC59
:4038C000141417101F10101F101F1414141F00101010F0000000001F101010101F10101010F010000000FF101010101010101010FF10000000FF140000FF00FF00001F10D5
:40390000170000FC04F414141710171414F404F40000FF00F714141414141414F700F7141414171410101F101F141414F4141010F010F000001F101F0000001F14000000E8
:40394000FC140000F010F01010FF10FF141414FF141010101F00000000F010FFFFFFFFFFF0F0F0F0F0FFFFFF0000000000FFFF0F0F0F0F0F3844443844FC4A4A4A347E02C0
:40398000020606027E027E0263554941633844443C04407E201E2006027E020299A5E7A5991C2A492A1C4C7201724C304A4D4D303048784830BC625A463D3E494949007EB9
:4039C0000101017E2A2A2A2A2A44445F444440514A444040444A51400000FF0103E080FF000008086B6B083612362436060F090F06000018180000001010003040FF01012B
:403A0000001F01011E00191D1712003C3C3C3C000000000054465400427566666572206F766572666C6F770055415254207374617274656400000000203A20004D53470068
:403A40004D53475F73656E644D657373616765207374617469632062756666657220746F6F20736D616C6C2C207472756E636174696E67207472616E736D6974746564202A
:403A80006D657373616765004D53475F73656E644D657373616765206275666665722066756C6C004D53475F726563656976654D657373616765206261642073697A6500EF
:403AC0004D53475F726563656976654D6573736167652062756666657220656D707479004D53475F67657453697A65416E6449644F664E6578744D65737361676520656D03
:403B000070747920627566666572000053697A65203D2025642C2046696C6C6C6576656C203D2025642C2052656164496E646578203D2025642C205772697465496E64655F
:403B400078203D2025640000202020434F4E54005B25645D20416472657373203D2025782C2053697A65203D202564004D656D6F727920616C6C6F636174696F6E2F6164B6
:403B800072657373206F7574206F66206F66206865617020617265613A20257820282578202D2025782900004572726F7220616C6C6F636174696E67207374617469632050
:403BC0006D656D6F727900004D53475F726563656976654D65737361676552656620676F742077726F6E67206164726573732025780000004D53475F726563656976654D95
:403C00006573736167655265662062756666657220656D7074790000726564007768697465000000626C756500000000626C61636B000000677265656E0000006379616E49
:403C40000000000079656C6C6F77000062726F776E0000006772617900000000405100403000F0510040100000000140001000140140800200170140000500400140000A2B
:403C8000004C01400002105001401000605200408C0C0048060080160140940C0048800000500140140D004810000000FF0001010202020203030303030303030404040472
:403CC000040404040404040404040404050505050505050505050505050505050505050505050505050505050505050506060606060606060606060606060606060606067C
:403D000006060606060606060606060606060606060606060606060606060606060606060606060606060606060606060707070707070707070707070707070707070707EF
:403D40000707070707070707070707070707070707070707070707070707070707070707070707070707070707070707070707070707070707070707070707070707070783
:403D8000070707070707070707070707070707070707070707070707070707070707070707070707070707070707070701000000B43D0000000000000000000003000000DA
:403DC0000000000000000000FFFFFFFF0000000000000000000000000000000000000000FFFFFF7F0000000000000000200000000000000000000000010000000100000029
:403E00000000000001000000010000000100000001000000010000002000000010000000010000000100000002000000000000000100000001000000200000001000000017
:403E400001000000B90000004D01000079020000F5020000412800004128000041280000412800000000000000000000010000000200000000000000616C726D5F546963F6
:403E80006B316D730000000065765F6A736F6E0065765F54465400007265735F6D7367426F7800007265735F6A736F6E000000005461736B5F496E69740000005461736BD5
:403EC0005F4A534F4E0000005461736B5F544654000000005461736B5F4261636B67726F756E640043000020202020202020202028282828282020202020202020202020CC
:403F000020202020202020881010101010101010101010101010100404040404040404040410101010101010414141414141010101010101010101010101010101010101F9
:403F400001011010101010104242424242420202020202020202020202020202020202020202101010102000000000000000000000000000000000000000000000000000CB
:403F80000000000000000000000000000000000000000000000000000000000000000000000000000000000000000000000000000000000000000000000000000000000001
:403FC000000000000000000000000000000000000000000000000000000000000000000000000000000000232D302B2000686C4C0065666745464700303132333435363736
:4040000038394142434445460030313233343536373839616263646566000000F8B500BFF8BC08BC9E4670475900000009170000F8B500BFF8BC08BC9E467047350000006C
:4040400050400000C880FF1FC0010000E00F0000000000006892FF1F783E000000000000FFFFFFFFFFFFFFFFFFFFFFFFFFFFFFFFFFFFFFFFFFFFFFFFFFFFFFFFFFFFFFFFEC
:40408000FFFFFFFFFFFFFFFFFFFFFFFF010000000200000003000000FFFFFFFF0000000005000000040000000000000001000000010000000100000001000000FFFFFFFF01
:4040C000FFFFFFFFFFFFFFFFFFFFFFFFFFFFFFFFFFFFFFFFFFFFFFFFFFFFFFFFFFFFFFFFFFFFFFFFFFFFFFFFFFFFFFFFFFFFFFFFFFFFFFFFFFFFFFFFFFFFFFFFFFFFFFFF00
:40410000FFFFFFFFFFFFFFFFFFFFFFFFFFFFFFFFFFFFFFFFFFFFFFFFFFFFFFFFFFFFFFFFFFFFFFFFFFFFFFFFFFFFFFFFFFFFFFFFFFFFFFFFFFFFFFFFFFFFFFFFFFFFFFFFBF
:40414000FFFFFFFFFFFFFFFFFFFFFFFFFFFFFFFF03000000030000000300000003000000883E0000903E0000983E0000A43E0000B03E0000BC3E0000C83E0000D43E0000F7
:404180006492FF1F000000003890FF1F708EFF1F0000E02EC05D00001800000000366E01000000000000000000000000000000000000000000000000000000000000000001
:4041C00000000000E43E000000000000000000000000000000000000000000000000000000000000000000000000000000000000000000000000000000000000000000009D
:40420000000000001C82FF1FE63E0000000000000000000000000000000000000000000000000000000000000000000000000000000000000000000000000000000000009E
:40424000000000000000000000000000000000000000000000000000000000000000000000000000000000000000000000000000000000000000000000000000000000003E
:4042800000000000000000000000000000000000000000000000000000000000000000000000000000000000000000000000000000000000000000000000000000000000FE
:4042C00000000000000000000000000000000000000000000000000000000000000000000000000000000000000000000000000000000000000000000000000000000000BE
:40430000000000000000000000000000000000000000000000000000000000000000000000000000000000000000000000000000000000000000000000000000000000007D
:020000040003F7
:0200000480007A
:40000000055200400A6400400165004001010140540201403703014060040140390501405E060140470701406508014042090140500A0140410B0140570C0140350D01409F
:40004000490E0140290F0140011501400F16014045170140471801404F190140511A0140531B014005400140104101400442014003430140044401400F45014004460140A2
:4000800003480140034901400C4C01400F4D014005500140015101400040085909CA10191121820D830D840F860D880F890D8A0D8D0D8E388F0D8A72E204020207010902FB
:4000C000110219021A011D0226042D012E013004320133023402370139083F044020410649FF4AFF4BFF4DA04F04501852805405580459045A045B045F01604062C06440F2
:40010000654066C068C06AC06CC06EC08F0192029A019B02A204AA01AB02AD01B101B201B402B502B604BE04C020C106C5D0C601C702C816C9FFCAFFCBFFCDAFCE0FCF04C1
:40014000D018D280D405D804D904DA04DB04DF01E040E2C0E440E540E6C0E8C0EAC0ECC0EEC0068009200A400D20108012081580162019B41D201E201F0222202380264466
:4001800029802A202B042F0231103481372039803F184120452049024A084E0850805140520859065B805E805F097240768083208480850286108E24C010C24AC4AACA1C4D
:4001C000CCB4CE68D024D224D6DBE002E240E6010008010405600B040C0C0D040E03100A11011403150716041738180119041A081C0A1D0420022104240826022802290AA9
:400200002A082B102C082D562E022F09317F340F39023A204060410249FF4AFF4BFF4DA04F04501856025724580459045A045B045C995D905F01604062C06440654066C088
:4002400068C06AC06CC06EC08B0196019B01AB02AC01B001B102B501BF10C060C103C5D0C620C701C81AC9FFCAFFCBFFCDAFCE0FCF04D018D804D904DA04DC22DF01E040C3
:40028000E2C0E440E540E6C0E8C0EAC0ECC0EEC0018209800A140B800C041020115012801780180419101A041C402102278829522C842F4830203186352039523A043E20CC
:4002C0004120462049204D204F01552056205704600868A069526A806B01704071809711980899209F08A502A704A808AC01C009C22FC48FCA2DCC2FCE2FD044D224D80470
:40030000EE040301070215041A011B01210225022A0134013501370639803F104020410445D04721483249FF4AFF4BFF4DA04F04501852805405580459045A045B045C121B
:400340005D225F01604062C06440654066C068C06AC06CC06EC080108104850289048C148D048E2890309304943996029701980E99049A119C30A024A103A410A503A62019
:40038000A820AA10AC10AE20B238B303B504B607B908BA80BF14C003C540C9FFCA07CBFFCC40CD20CEF0CF05D008D804D904DA04DC09DD01DF01E040E1A8E240E320018234
:4003C00009800A140B800F081020115012801720180219C41A301D1020082104270A28102B802C102F80302031083301340236083722388439123C043F024104450247209B
:40040000484049014F01510852085502570D5C405F097680821087028C0490C091529284938096109B019DC69E04A0A0A180A680A708B280B310B404C009C24FC44FCAC387
:40044000CC67CECFD0A2D6D0E406EC800110040905030610070408140C300D0A0E0C0F041103130C1503160317041A201B081C2C1E11222024102C1C2E222F05321F351030
:400480003620370F3B803E403F104060410249FF4AFF4BFF4DA04F0450185401580459045A045B045C115D105F01604062C06440654066C068C06AC06CC06EC081088312B2
:4004C0008601890A8B148E01911C9B01A506A708AB01B11EB301B601B902BE40BF04C060C102C5D1C620C80BC9FFCAFFCBFFCDAFCE0FCF04D018D405D804D904DA04DB04BF
:40050000DC90DF01E040E2C0E440E540E6C0E8C0EAC0ECC0EEC000800108042007120E100F0A169119401E12210222042404270229202B202E8031223408362037123A2081
:400540003B023F8941204520482049A14A014D205120584059015A085C245D805F018284832086208E018F4096029726984099209A209C029D50A420A686A720B020B621EE
:40058000B708C0E5C2E0C4B0CA16CCE5CED5D024D224D6FBE440E880EC400B040D02120213041B021E0226042B012E012F013004310233013402350436013E103F104010B1
:4005C000410449FF4AFF4BFF4DA04F04501852805405580459045A045B045F01604062C06440654066C068C06AC06CC06EC0870295019A019F01A801AF01B001B302B70184
:40060000BF40C050C104C5D1C720C823C9FFCAFFCBFFCDAFCE0FCF04D018D409D804D904DA04DB04DD90DF01E040E2C0E440E540E6C0E8C0EAC0ECC0EEC009020A010F08E5
:4006400010201340144015021720184019801A051E40202421012640272029802B042F01302032023680370838403B203F084102420145024D824F08550259025A445C2278
:400680005E805F0466407340841094049602970299209A409D509E019F08A420A604A720AB80B120B240B440C249C445CA1CCC55CE4CD089D210D6FBD810E0080301080940
:4006C0000A061502180319021A0C1C021E0D24052502260A31013502360F3A803F104010410649FF4AFF4BFF4DA04F0450185280580459045A045B045C095F01604062C00E
:400700006440654066C068C06AC06CC06EC08306860287018A019202930499029F01A306A601AE04B002B106B201B301B404BF04C010C106C5D1C702C813C9FFCAFFCBFF9B
:40074000CDAFCE0FCF04D018D280D405D804D904DA04DB04DC90DF01E040E2C0E440E540E6C0E8C0EAC0ECC0EEC00128051009010E0A102013401708185019201E021F80B9
:4007800021022204252127402A012F20310233603510370838083B023C024340474049094A084E085004520859015A487340740180109240940496029D48A502B404B50261
:4007C000C046C2C8C425CA41CC6DCE83D018D224D60BE01206010E02180127012A023001340235014040410349FF4AFF4BFF4DA04F04501854185604580459045A045B0496
:400800005D105F01604062C06440654066C068C06AC06CC06EC08E0296049901A602AB01AE01B001B204B402B701BE10C040C103C5D0C620C701C81AC9FFCAFFCBFFCDAFE4
:40084000CE0FCF04D018D280D405D804D904DA04DB04DF01E040E2C0E440E540E6C0E8C0EAC0ECC0EEC000400108044009200C0810081620174018081A401C401E28212036
:40088000264029082C083610404042204301462047014D01540856205A025D015E8860046140620177408201C085C222C4A2CA22CC20D0C3D6D1D80DB1080202040606019D
:4008C0000E0616011E0326052F01330136073A80580459045C215F010182032004040501070209800A940D080E0110A01110141019021B201E011F80200422082720281AA8
:400900002B802E80302031093240388039123B044214480449404A804B04512252445C0C6120624889029080911292949404981299C19A809B029D029E049F20A0A4A1881C
:40094000A680A780A910AC10B044B380B401C0BDC2AFC42ECA1FCC0FCE0FD006D20CD80EEE0204060601070108070D010E011406180219011C042001220628062A012B014D
:400980003101320739023A083B204046410245EB470C481349FF4AFF4BFF4EF04F44500C580459045A045C115D015F0166C06A406B02801C8261841C86628A048D018E63B2
:4009C0009067921894189501980899019C10A040A460A87FA901AC24AE80B101B280B41FB660BA20BF01D804D904DB04DC01DF01005401010444070409280A010B800D281A
:400A00000E0110401160130814041640181419201A021F08238025102622270429202F0830043220330836203A403BC03C043F40440847024C184F01570468046A806B50EA
:400A400070817208732086088720880489018B04921094209602972598089B029D089E80A440A602A704A820AB04AF02B00AB210B301B510B701C0EFC2EFC45FCA24CC2685
:400A8000CE58D0A0D220E002E422E8E0EC20000101220351040E0567080C09670A020E021002120C140C15441731180419011B0E1C08200E240128013001320E336035072C
:400AC00037183F40405441034206440145C046E0480A49FF4AFF4BFF4C624DA04EF04F41500C56025710580459045A045B045C115D115F016640670269106A306B106D101C
:400B00006E106F128001840F880389018C038E0C940C98049E03A00CA203A402A80FAC08B101B60FBA80BF01D804D904DC01DF01004202200308040205400620070809281E
:400B40000A010B800D280F02111413021404150816021702184019081B011D401F40200121042214230825013214380239143E1040414220430448404A044B8053105B80B7
:400B80005D085E0868016914712872038440860489208B028C018D41921094409540960197A0980499209B849C409D089F08A220A308A440A528AB50AC80B00CB280B401FA
:400BC000B640C0FFC2EFC4FECC06CE27D00BD20CD608E80CEC21321035808180CC30E220070109080F405C0263028002810887418E109620C080C230D6C0E080E440E69064
:400C00005704AF01D440E8409D80A704B18073807680DC01DE0457065C02601086808C0290109E80B410B780D402D605D802E008E808EC088702A702B704E8029D80AB045A
:400C4000EE2001809D80C04050105501570858125E016008661084028610D407D607D803128075048D048E80A810A901AE01B010B408B708C408DE04E008E202E80E1006E1
:400C800011011A061B011C02000F0000A4840000400000001010600002000D1000100000721008004D00000801003203121064004D0000104D01000E4D0100060D0C40039E
:400CC0000000000C700000100F0F000000002220000000042503600000CDFDEB3FFFFFFF2200F008040000004000000004040404199900010000C00040011011C001001176
:400D000040014001000000000000000000000000000000000701000000000000010007010301030138C0C000C0000000800040BCBC00B4000000000000FFFF00FF000000B7
:400D4000003939003900000004383800080000000000000000000000000000000000000000000000000000000000000000000000000000000000000000000000000000004C
:400D80000000000000000000000000000000000000000000000000000000000000000000000000000000000000000000000000000000000000000000000000000000000033
:400DC00000000000000000000000000000000000000000000000000000000000000000000000000000000000000000000000000000000000000000000000000000000000F3
:400E000000000000000000000000000000000000000000000000000000000000000000000000000000000000000000000000000000000000000000000000000000000000B2
:400E40000000000000000000000000000000000000000000000000000000000000000000000000000000000000000000000000000000000000000000000000000000000072
:0200000490006A
:0400000000000007F5
:0200000490105A
:04000000BC90ACAF55
:0200000490303A
:020000004B7C37
:0200000490402A
:4000000000000000000000000000000000000000000000000000000000000000000000000000000000000000000000000000000000000000000000000000000000000000C0
:400040000000000000000000000000000000000000000000000000000000000000000000000000000000000000000000000000000000000000000000000000000000000080
:400080000000000000000000000000000000000000000000000000000000000000000000000000000000000000000000000000000000000000000000000000000000000040
:4000C0000000000000000000000000000000000000000000000000000000000000000000000000000000000000000000000000000000000000000000000000000000000000
:0200000490501A
:0C00000000012E16106900002E325BE596
:00000001FF