:400000000080002011000000AD070000AD07000008B5064A136843F020031360044B1A6803F53F5302331A6000F0E0FBE8460040FA46004010B5054C237833B9044B13B1E3
:400040000448AFF300800123237010BD6082FF1F0000000060290000084B10B51BB108490848AFF300800848036803B910BD074B002BFBD0BDE81040184700BF00000000BF
:400080006482FF1F60290000C880FF1F0000000008B562B645F6BF52054B1A60054A136843F002031360002001F032F9FBE700BF14E000E010E000E008B5002000F0D0FDD2
:4000C00008BD00BF684620F007018D4619B572B6EFF311841E4B1B68DBB20F2B10D9103B23F0030202F1604202F564421168DB0003F01803E0229A400A4022FA03F306E0C5
:400100000F2B03D1134B1B681B0E00E0002383F31188114A136801331360012B01D101F029FE62B6FFF7C8FF72B684F3118800F0ADFF094A1368013B13601BB901F023FEF6
:4001400001F0E7FD62B6BDE819408546704700BF04ED00E020ED00E03483FF1F08B501F00DFA10B901F022FA18B10121084600F01DFE01F00BFA10B901F010FA18B102214B
:40018000012000F013FE08BD684620F007018D4619B572B6EFF311841E4B1B68DBB20F2B10D9103B23F0030202F1604202F564421168DB0003F01803E0229A400A4022FA7D
:4001C00003F306E00F2B03D1134B1B681B0E00E0002383F31188114A136801331360012B01D101F0C7FD62B6FFF7B8FF72B684F3118800F04BFF094A1368013B13601BB941
:4002000001F0C1FD01F085FD62B6BDE819408546704700BF04ED00E020ED00E03483FF1F08B500F097F801F073F9074A136843F005031360022000F061FB012000F05EFBC7
:4002400001F0ACF808BD00BF10E000E000B583B000F0B0F85F2000F029FE01A9012000F085FD019800F054FD019800F0C1F8F1E700BFFDE770B50E461546074C34F8100048
:4002800001F08EFA34F8160001F06EFB34F8150001F0F8FA002070BD6429000008B5034B33F8100001F0D2FB002008BD6429000008B5034B33F8100001F0AEFC002008BDEF
:4002C0006429000008B5034B33F8100001F030FC002008BD642900000F290ED838B50C46054601F03FF9064B185D064B5C55064B585501F031F9002038BD6FF013007047AC
:40030000642B0000CC80FF1F7C82FF1F08B5FF22044B1A5401F026F9002001F01DF9002008BD00BFCC80FF1F08B50020FFF7EEFF0120FFF7EBFF002008BD00BF10B5044654
:40034000002000F0ADFE204601F0C8F9002001F04DF810BD30B591B001F0E4FA01F054FB01F06EFA01F0A8FC01F0C0FB01F032FCFFF7DAFF01F066F9002211461046FFF7B5
:4003800079FF0020FFF79EFF0020FFF791FF0020FFF784FF6C46064D0FCD0FC495E8070003C422806846FFF7C9FF002011B030BD782B000000B5A1B0FFF7B6FF054B1A78C2
:4003C0000549684601F0A8FE6846FFF7B7FF21B05DF804FBCE80FF1F942B000010B5034C2146002000F0F4FD206810BD2483FF1F30B5A3B0544B1B78032B00F2A280DFE8B7
:4004000003F002137C9010F0030F00F09A804E4D01246C7021460020FFF75EFF69782046FFF75AFF2C708CE010F0020F2AD0464B5B78012B1CD1FFF7D1FF434C6268821A35
:40044000A3681344A36004F10C054049284601F063FE2846FFF772FF94F84C30013384F84C303B4A137801331370FFF7A3FF68E03848FFF763FF364A137801331370FFF788
:4004800099FF5EE010F0010F2AD02F4B5B78022B1CD1FFF7A3FF2C4C6268821AA3681344A36004F10C052949284601F035FE2846FFF744FF94F84C30013384F84C30244AC7
:4004C000137801331370FFF775FF3AE02148FFF735FF1F4A137801331370FFF76BFF30E010F0080F2DD01C48FFF728FF184A137801331370FFF75EFF23E010F0400F20D0BA
:40050000114CA36894F84C20B3FBF2F10091134902A801F001FE02A8FFF710FF032323700FE010F0040F0CD00122094B1A70064B00221A655A6083F84C205A709A60FFF7AF
:4005400039FF23B030BD00BF8082FF1FD42B0000CE80FF1F0C2C0000282C0000342C0000FEE700BFF0B40022174611E050F82760F3B226F0FF0608E001EB420511F8124090
:400580006D78A5550132013BDBB2002BF4D10137232FEBD9F0BC7047064B1B78DBB203F00701054A11701B09013213704422034B1A707047CF0100496E5800407658004087
:4005C00008B50A46002101F09EFD08BD38B50223254A1380182225490A70192502310D8002310A70224A137008224FF040231A70032103F5007319701E4B1B78DBB21E494E
:400600000B701E4B1A8041F25122023B1A8000240CE01B4B1B7803F0010343EA440404F003044FF4F07001F057FB013D0DB1032CEFD115B90320FFF793FF124B4FF4807273
:400640001A8007221A7000220F490A704820023108701A700222033B1A700C4A137843F00303137038BD00BF80400040824000400043004008010049A146004022420040BD
:40068000254200400440004006400040A243004008B501F02DFD08BD38B572B6304A137843F02003137000240CE02E4D630019194A0011462A44084691882858FFF780FF49
:4006C0000134E4B2062CF0D927494FF09040FFF749FF264A137843F0020313701032137843F002031370224C237843F040032370A2F58632513A137843F0100313700822CF
:400700001C491D48FFF7C4FF0A221C491C48FFF7BFFF08221B491C48FFF7BAFF08221B491B48FFF7B5FF08221A491B48FFF7B0FF1A4A137843F008031370194D61232B7087
:40074000FFF744FF81232B700122164B1A70FFF723FF0E2221461448FFF79AFF38BD00BFE8460040882C00009000004803500140A04300400C0A004802510040140A00489D
:40078000C0510040200A004812510040280A004822510040300A004832510040224300400048004004000840B043004008B501F073FC03680C2B00D1FEE7FEE708B5094B4A
:4007C0001A681044084BC31A802B02DC054B186005E001F061FC0C2303604FF0FF32104608BD00BFD080FF1F9088FF1F08B5104E104D16E029686B68AC68002204E051F8BA
:40080000040B43F8040B0432A242F8D1E868002203E0002143F8041B04328242F9D11035013E002EE6D101F03DFCFFF731FCFEE701000000682F000008B5104A104B1A60C9
:40084000104A136843F40073136000230AE0032B03D80D4A52F8231000E00C490C4A42F8231001332F2BF2D90A4B1A780A4B1A70074A0A4B1A60FFF70FFF08BD0004FA0599
:400880000CED00E014ED00E000000000AD0700000080FF1FBC760040C080FF1F08ED00E001BE704770B504460E46074B1D681F2802D90020FFF7F4FF04F01F04103455F8A4
:4008C000240045F8246070BD08ED00E038B504460D46072902D90020FFF7E2FF1F2C02D90020FFF7DDFF04F01F0000F1604000F564406D01EDB2057038BD00BF38B5EFF32B
:40090000108572B602284ED82D4B53F82030002B4BD02B4A013B42F820302A4B53F82030032B07D10222274B43F820200022264B43F8202000F06EFC244B1B68002B36D163
:40094000234B1C6800F044FCB0F1FF3F31D0214B53F82020204B1B689A422CD9B4F1FF3F03D00221174A42F824101C4A52F820201343194A13600022124B43F8202000F001
:40098000E3FB174B53F820304BB10024144B43F8204040F0004001F0FFF920460CE001F0FBF9002008E0032006E0042004E0002002E0002000E0002085F3108838BD00BFB3
:4009C0001481FF1FB081FF1FF082FF1F3483FF1FA081FF1F3C2E00000483FF1F102E0000D882FF1F18B108B5C368984708BD704708B508B1406800E00020022816D80C4BF3
:400A000053F8203093B10A4A013B42F82030094B53F82030032B07D10222064B43F820200022054B43F8202000F0F4FB08BD00BF1481FF1FB081FF1FF082FF1F18B10346E4
:400A400040689B6801E00023184602281DD80F4A52F82020CAB10E4A52F82010032914D010B50C4C54F820201A4344F820200A4A52F82020134207D0012905D10222044B0B
:400A800043F8202000F0C6FB10BD7047F82D0000B081FF1FF082FF1FE482FF1F80B108B50378012B06D013B1032B06D008BDFFF79FFF08BDFFF7C2FF08BDFFF793FF08BDE4
:400AC000704700BF30B400EB40029300214AD258214B03EBC2035C68B4F1FF3F04D11E4B03EBC20250602DE01C4B03EB04139B6899420AD2184D05EBC2025060174A02EB97
:400B000004125B1A93601DE01C46144B03EB04139A68891ADB68B3F1FF3F05D00F4A02EB031292689142EFD2B3F1FF3F05D00B4A02EB031295686D1A9560084A02EB04140E
:400B4000E0601C46054B03EB00108160C46030BC704700BFD42D0000D880FF1F5483FF1F38B5394A02EBC0035C6852F83030013342F8303000EB40018A0034498A5893426C
:400B800003D90022304B43F83020B4F1FF3F59D02F4B03EB04139B68002B4ED1214600E019462B4B03EB0113DB68B3F1FF3F05D0274A02EB03129268002AF1D0244A02EB8E
:400BC00001114FF0FF32CA601F4A02EBC0004360B3F1FF3F07D01E4A02EB03139A68013A9A6000E02C4604EB44029300194A13441B7A7BB904EB44029300164A13445A6857
:400C0000154B53F8223003EB83039A0013481044FFF744FF0E4B03EB0413DD68596821B101392046FFF74EFF03E024010022084B1A51B5F1FF3FD5D138BD054A02EB0414ED
:400C4000013BA36038BD00BFD880FF1FE82D00005483FF1FD42D0000E42D0000C02D000038B5EFF3108572B6002838D1FFF778FF204B1B68002B34D11F4B1C6800F0A8FA3A
:400C8000B0F1FF3F2FD01D4B53F820201C4B1B689A422AD9B4F1FF3F03D00221194A42F82410194A52F820201343154A13600022144B43F8202000F047FA144B53F82030B4
:400CC0004BB10024114B43F8204040F0004001F063F820460AE001F05FF8002006E0032004E0002002E0002000E0002085F3108838BD00BF3483FF1FA081FF1F3C2E000018
:400D00000483FF1FB081FF1F102E0000D882FF1FEFF3108372B6114A1168114A126882B9B1F1FF3F0FD00F4A52F821206AB110B40D4C54F8212022EA000044F82100002097
:400D400007E0022002E0022000E0012083F31088704783F3108810BC704700BFA081FF1F3483FF1FF82D0000F082FF1F02280FD80B4B53F820306BB10A4B53F82030032B4B
:400D80000AD059B1084B53F820300B60002070470320704701207047072070470E207047F82D0000B081FF1FF082FF1F38B5EFF3108472B6022853D8324B53F82030002B83
:400DC00050D0314B53F82030032B4DD02F4D55F820200A4345F820202D4A52F82020114244D0012B44D10222274B43F8202000F011FA284B1B68002B3CD1274B1D6800F0D4
:400E0000E7F9B0F1FF3F37D0244B53F82020244B1B689A4232D9B5F1FF3F03D002211A4A42F825101F4A52F8202013431C4A13600022154B43F8202000F086F91A4B53F82E
:400E400020304BB10025184B43F8205040F0004000F0A2FF284612E000F09EFF00200EE003200CE001200AE0072008E0002006E0002004E0002002E0002000E0002084F32B
:400E8000108838BDF82D0000B081FF1FF082FF1FE482FF1F3483FF1FA081FF1F3C2E00000483FF1F102E0000D882FF1F38B5EFF3108472B63A4B1D683A4B1B68002B63D148
:400EC000B5F1FF3F62D0384B53F82530B3F1FF3F5ED1364B53F82530002B5BD0344B53F82530034258D1334B43F825000122324B43F82520314B53F8250031490B6823EAC0
:400F000000030B602F4B43F825202F4B53F82520234B1A6000F05CF9B0F1FF3F06D02B4B53F82020264B1B689A420DD81C4B1868B0F1FF3F03D000221F4B43F8202040F0D7
:400F4000004000F029FF1AE000211B4A42F820101A4A52F820201343194A136000F0F4F8184B53F8203043B10022164B43F8202040F0004000F010FF01E000F00DFF0020DD
:400F80000C4B43F8250008E0022006E0022004E0062002E0012000E0002084F3108838BDA081FF1F3483FF1FE480FF1FF82D0000F082FF1FE482FF1FB081FF1F102E0000FB
:400FC0000483FF1FD882FF1FA481FF1F3C2E0000EFF3108372B629B130B9054A52F830200A6002E00E2000E0032083F310887047D880FF1F08B500F0A7F8084B53F82030EC
:4010000043B10022054B43F8202040F00040044B186008BD024B186008BD00BFD882FF1F3883FF1F10B500F0D3F8124B1B68B0F1FF3F1AD0104A52F82010104A1268914295
:4010400013D9B3F1FF3F03D002240D4941F8234000210B4B43F820100A4B53F820301A43064B1A60FFF7C6FF10BD43F00043064A136010BDA081FF1F3C2E00000483FF1FE1
:40108000B081FF1F102E00003883FF1F034B1B6813B10022014B1A60704700BF2883FF1F204B1A68204B1968EFF3108372B648BB30B41E4C54F8204044BB51B9B2F1FF3FB1
:4010C00026D01B4C54F822501A4C54F82040A54220D809BB184951F82250184C44F8205041F822000121114A42F8201014490C68144A42F820400F4A52F8202022430A6037
:4011000000200AE0032083F310887047012004E0012002E0012000E0012083F3108830BC704700BFA081FF1F3483FF1FD482FF1F3C2E0000F42D0000E480FF1FE080FF1F10
:401140000483FF1F6483FF1FF0B4184B19880B0A174AD356B3F1FF3F01D1535601E008335BB2144D55F82320134850F82200134E56F8224045F82340114D2F6846F82270CC
:401180002A60B4F1FF3F09D10E4A42F82340012202FA03F321EA0301044B19800A4B19680A4A42F820101860F0BC70470083FF1FB42C00006081FF1F3C83FF1FFC80FF1F81
:4011C000FC82FF1F2081FF1FA081FF1FA481FF1F0C4B1A88130A0C49CB56B3F1FF3F01D18B5601E008335BB2B3F1FF3F06D0074A52F82320064B53F8220070474FF0FF304F
:40120000704700BF0083FF1FB42C00006081FF1F3C83FF1F30B4144B53F82020134C2368134951F823502560124C44F823004FF0FF3441F82340104951F82210A1420AD129
:401240000E4951F820400E480188214301800D4941F8223002E0064840F82130064941F8223030BC704700BF0881FF1FFC82FF1FFC80FF1F3C83FF1F2081FF1F3C2E0000F1
:401280000083FF1F6081FF1F10B150F8210070474FF0FF30704700BF0122014B1A60FEE73083FF1F70B50546124B53F8306000241CE0104B03EBC50321465868FFF7E4FF51
:4012C0000D4A52F82030013B42F820300B4B53F82030032B07D10222084B43F820200022074B43F82020FFF795FF0134B442E0D370BD00BFB42D00001481FF1FB081FF1F28
:40130000F082FF1F18B908B5FFF7CCFF08BD7047194B1A4ADA621A4A9A631A4ADA63EFF3108272B6184B1B6813BB10B5044600F0EFF8164B1C600122134B1A602046FFF7E2
:40134000E1FFFFF745FFB0F1FF3F0ED0104B53F82030104A11680B43136000220E4B43F82020FFF7F1FE00F017FD62B6FFF794FF82F31088072070470080FF1F591D00008D
:401380001D1D0000C50000003083FF1FF884FF1F102E00000483FF1FB081FF1F08B5EFF3108272B60D4B19680D4B1B6863B90D4B53F82130B3F1FF3F08D14FF0FF300A4BF6
:4013C00043F82100002002E0022000E0062010B9084600F03AFD82F3108808BDA081FF1F3483FF1FE480FF1FF080FF1F70B53C4B1A683C4B1B68EFF3108572B600285BD108
:40140000394951F82010002958D0384951F82210884255D153B9B2F1FF3F53D0344C54F82260344C54F82040A6424DD8002B4DD1314C54F821402D4941F8224000212A4AC4
:4014400042F820102D4A52F820102D4A1160002B3ED1234B1C68FFF7BBFEB0F1FF3F39D0234B53F82020264B1B689A4234D9B4F1FF3F03D00221234A42F82410224A52F826
:40148000202013431E4A136000221E4B43F82020FFF75AFE1D4B53F820304BB100241B4B43F8204040F0004000F076FC204614E000F072FC002010E003200EE005200CE087
:4014C00005200AE0012008E0012006E0012004E0002002E0002000E0002085F3108870BDA081FF1F3483FF1FD482FF1FE480FF1F3C2E0000F42D0000E080FF1F6483FF1F51
:401500000483FF1FB081FF1F102E0000D882FF1F38B50D4B1D68EFF3108472B600F0ECFB0A4A136843F07F431360094B6B6402210120FFF7CBF9074A136843F002031360F3
:4015400084F3108838BD00BF08ED00E020ED00E08901000000E100E0014B1870704700BF79650040044A137803F0DF03400100F0200018431070704730510040024B187804
:40158000C0F3C000704700BF01510040024B1878C0F30010704700BF01510040024B1878C0F38000704700BF31510040024B1878C0F34010704700BF0151004008B5722287
:4015C0000B4B1A702022033B1A700A490020FFF769F907210020FFF779F90622064B1A70472210331A70022203F24F131A7008BD8B650040011700002764004010B500F0BB
:4016000073FB04460D4A137843F020031370033A137843F010031370023A137843F0100313700123064A1360A2F5C072136000F095F8204600F05CFB10BD00BF9B650040FD
:4016400080E200E008B5054B1B7823B9FFF7B6FF0122024B1A70FFF7D1FF08BD0C83FF1F10B4194B99885B889BB2994205D25A1E914214BF0022012206E0CA1A40F28F14A2
:40168000A24214BF00220122002AEAD1994207D10E4B1B7813F0040F02D10D4B187010E0B1F5C87F00D300210A4B58540131064B9980064B1B7813F0020F02D00122064B35
:4016C0001A6010BC704700BF0C83FF1F6665004046640040FC86FF1F00E200E038B5074B1B782BB938BDFFF7BBFF0134A4B201E005460024285D0028F5D138BD0C83FF1FDF
:4017000015E0114B1B889BB2B3F5C87F02D300220D4B1A800C4A13889BB20C49CB5CDBB20B490B7013889BB201339BB21380064B1B889BB2074A1288934204D0064B1B78C5
:4017400013F0040FDDD070470E83FF1FFC86FF1F466400401083FF1F66650040054A137843F0020313701032137843F002031370704700BFA2430040024A137843F08003B5
:40178000137070477F640040014B1880704700BF1C680040014B1880704700BF9C680040014B1880704700BF5C680040014B1870704700BF8F640040014B1878704700BFE3
:4017C0006F640040014B188880B27047BC68004008B501E0FFF7F6FFFFF7EEFF10F0100FF8D108BD10B5144A137803F0C00343F0090313701F32137843F0010313700F4C6D
:40180000237843F0010323706420FFF7BDFF6420FFF7C0FF3220FFF7C3FF0020FFF7C6FF00F062FA237843F01003237000F060FAFFF7CEFF10BD00BF7F6400409F64004030
:4018400008B5054B1B7823B9FFF7CCFF0122024B1A70FFF791FF08BD1383FF1F024A137843F08003137070477B640040014B1880704700BF14680040014B1880704700BFDC
:4018800094680040014B1880704700BF54680040014B1870704700BF8B640040014B1878704700BF6B640040014B188880B27047B468004008B501E0FFF7F6FFFFF7EEFF1F
:4018C00010F0100FF8D108BD10B5144A137803F0C00343F0090313701F32137843F0010313700F4C237843F0010323706420FFF7BDFF6420FFF7C0FF3220FFF7C3FF002026
:40190000FFF7C6FF00F0F0F9237843F01003237000F0EEF9FFF7CEFF10BD00BF7B6400409B64004008B5054B1B7823B9FFF7CCFF0122024B1A70FFF791FF08BD1483FF1FE4
:40194000024A137843F08003137070477D640040014B1880704700BF18680040014B1880704700BF98680040014B1880704700BF58680040014B1870704700BF8D640040F6
:40198000014B1878704700BF6D640040014B188880B27047B868004008B501E0FFF7F6FFFFF7EEFF10F0100FF8D108BD10B5144A137803F0C00343F0090313701F32137874
:4019C00043F0010313700F4C237843F0010323706420FFF7BDFF6420FFF7C0FF3220FFF7C3FF0020FFF7C6FF00F07EF9237843F01003237000F07CF9FFF7CEFF10BD00BF8A
:401A00007D6400409D64004008B5054B1B7823B9FFF7CCFF0122024B1A70FFF791FF08BD1583FF1F024A137843F080031370704772640040014B1880704700BF0468004029
:401A4000014B1880704700BF84680040014B1880704700BF44680040014B1870704700BF83640040014B1878704700BF63640040014B188880B27047A468004008B501E011
:401A8000FFF7F6FFFFF7EEFF10F0100FF8D108BD10B5144A137803F0C00343F0090313702032137843F0010313700F4C237843F0010323706420FFF7BDFF6420FFF7C0FFBF
:401AC0003220FFF7C3FF0020FFF7C6FF00F00CF9237843F01003237000F00AF9FFF7CEFF10BD00BF726400409364004008B5054B1B7823B9FFF7CCFF0122024B1A70FFF7DC
:401B000091FF08BD1683FF1F024A137843F080031370704778640040014B1880704700BF106A0040014B1880704700BF906A0040014B1880704700BF506A0040014B1870E6
:401B4000704700BF89640040014B1878704700BF69640040014B188880B27047B06A004008B501E0FFF7F6FFFFF7EEFF10F0100FF8D108BD08B5154A137803F0C00343F08B
:401B80000903137002F59072137843F0010313700132137843F0010313706420FFF7BCFF6420FFF7BFFF3220FFF7C2FF0020FFF7C5FF00F099F8064A137843F0100313706B
:401BC00000F096F8FFF7CCFF08BD00BF786400409964004008B5054B1B7823B9FFF7CAFF0122024B1A70FFF78FFF08BD1783FF1F024A137843F08003137070477C640040AC
:401C0000014B1880704700BF10680040014B1880704700BF90680040014B1880704700BF50680040014B1870704700BF8A640040014B1878704700BF6A640040014B1888EA
:401C400080B27047B068004008B501E0FFF7F6FFFFF7EEFF10F0100FF8D108BD08B5144A137803F0C00343F0090313701C32137843F0010313700132137843F001031370E1
:401C80006420FFF7BDFF6420FFF7C0FF3220FFF7C3FF0020FFF7C6FF00F026F8054A137843F01003137000F023F8FFF7CDFF08BD7C6400409A64004008B5054B1B7823B9B3
:401CC000FFF7CCFF0122024B1A70FFF791FF08BD1883FF1F000000000230800803D000BF01380046FCD17047EFF3108072B6704780F31088704700BF18484FF47F01026877
:401D00000A43026016486FF07F4102680A400260704714484FF080510160704772B611484FF000610160FFF77DF90F48006800F0F3F858B10C4800684FF080730B4A0C49FD
:401D40000FB40FB46FF00600004700BF6FF0060062B6004762B600DF08B0704720ED00E01CED00E004ED00E03883FF1F991D0000551D0000EFF308800549086005480068CB
:401D800080F3088870470248006880F308887047F481FF1FE881FF1F411C8900154A11440968154A136899421AD0F0B444464D4656465F46F0B400B5104C9B002344EFF39E
:401DC00008851D60116089002144096881F3088802BC8E46F0BCA046A946B246BB46F0BC002806DB00B500F08BF802BC8E46FFF7D3BF7047602E00000883FF1FEC81FF1F89
:401E0000F0B444464D4656465F46F0B400B5EFF3038308B48000174901440968164A0244EFF30883136088471448804704BC4FF08070024382F3038801BC8646F0BCA046C6
:401E4000A946B246BB46F0BC704780000A4901440A6882F3088804BC4FF08070024382F3038808BC9E46F0BCA046A946B246BB46F0BC7047482E00004883FF1F811E0000D1
:401E800010B572B6034B1C68204600F00DF82046FFF7DBFFA081FF1F08B5024B1868FFF7AFFF08BDA081FF1F10B4104B53F820304FF0FF310BE00E4A52F823200B4941F8DB
:401EC000202000240B4941F8234019461346B3F1FF3FF0D1B1F1FF3F04D0074B53F82120064B1A60084610BC704700BFE480FF1FE080FF1FD482FF1F6483FF1F0483FF1F28
:401F000008B562B6FFF7C8FF72B600F041F8014B186808BD3883FF1F00280BDA20F000400130054B53F82000044B1B68181A18BF0120704701207047602E00000883FF1F49
:401F4000054B53F82020054B53F820309A4201D101207047002070471481FF1F042E000008B5FFF7F1F8084B53F8203043B10022054B43F8202040F00040044B186008BDF2
:401F8000024B186008BD00BFD882FF1F3883FF1F38B5364B1C680022354B1A60354A52F82430013342F82430334B53F824502046FFF7C6FF012801D0A54204D103222F4BE7
:401FC00043F8242003E002222C4B43F824202C4B53F824102B4A136823EA010313602A4B53F82440214B1C60B5F1FF3F0FD0234B53F82530032B07D10222204B43F8252009
:402000000022224B43F825202846FFF703F9FFF7DFF8B0F1FF3F0BD1B4F1FF3F03D00022164B43F8242044F00044194B1C6038BD184B53F82020134B1B689A4208D80022F7
:402040000E4B43F8242044F00044114B1C6038BD00210A4A42F82010094A52F820201343084A1360FFF77CFF38BD00BFA081FF1F2883FF1F1481FF1FF080FF1FB081FF1FAF
:40208000102E00000483FF1FA481FF1FF082FF1F3883FF1F3C2E0000014B1868704700BF5882FF1F0E4B70B51E460E4C0025E41AA410A54204D056F8253098470135F8E788
:4020C00000F040FF084B094C1E46E41AA4100025A54204D056F8253098470135F8E770BD502F0000502F0000502F0000582F000010B5431E0A44914204D011F8014B03F8E0
:40210000014FF8E710BD03460244934202D003F8011BFAE7704700000EB400B54FF402719CB0ADF814106FF00041049107914FF6FF711DAB02900690084853F8042BADF89B
:402140001610006802A9019300F064F8029B00221A701CB05DF804EB03B070475882FF1F2DE9F0478E6882469E420C46914698463ED88A8912F4906F3AD02568096902233D
:402180006F1A656905EB450595FBF3F57B1C43449D4238BF1D4653050FD5294600F040FB064698B13A462169FFF7A2FFA38923F4906343F08003A38113E02A4600F08EFBC7
:4021C000064670B92169504600F0DEFA0C23CAF80030A3894FF0FF3043F04003A381BDE8F08726613E44266046466561ED1BA560464528BF464649463246206800F0A8FA04
:40220000A36800209B1BA36023681E442660BDE8F08700002DE9F04F9DB003938B8980461C060D4616460DD50B695BB9402100F0F7FA2860286118B90C23C8F80030CDE0EE
:4022400040236B610023099320238DF82930DFF89CB130238DF82A3037463C4614F8013B1BB9B7EB060910D003E0252BF9D02746F3E74B46324629464046FFF771FF013075
:4022800000F0A780099B4B4409933B78002B00F0A08000234FF0FF3204930793059206938DF853301A930126052221784E4800F041FA671C049B38B14B4A3C46801A06FA3D
:4022C00000F018430490EFE7D90644BF20228DF853201A0744BF2B228DF8532022782A2A03D0079A00210A200BE0039A111D12680391002A10DA524243F002000792049029
:402300000BE027463B780134303B092B03D800FB02320121F5E701B107923B782E2B1ED17B782A2B0AD1039B02371A1D1B680392002BB8BF4FF0FF33059310E0002319460A
:402340000593781C0A2407463A780130303A092A03D804FB01210123F5E703B1059103223978224800F0E6F940B14023CBEB000003FA00F0049B013718430490397806224B
:402380001B487E1C8DF8281000F0D4F988B1194B33B9039B073323F007030833039314E003AB00932A46144B04A94046AFF3008007E003AB00932A460F4B04A9404600F0E9
:4023C00093F8B0F1FF3F824603D0099B5344099342E7AB895B0601D4099801E04FF0FF301DB0BDE8F08F00BF0E2F0000142F0000182F000000000000612100002DE9F04738
:4024000091461F460A698B6806469342B8BF1346C9F8003091F843200C46DDF8208012B10133C9F800302368990642BFD9F800300233C9F80030256815F0060510D104F1B8
:40244000190A07E00123524639463046C04701301AD00135E368D9F800209B1A9D42F1DB94F843302268003318BF012392060FD5E118302081F843005A1C94F845102244B8
:40248000023382F8431003E04FF0FF30BDE8F08704F1430239463046C0470130F4D02268D9F80050E36802F00602042A08BF5D1B2269A3680CBF25EAE57500259342C4BFDE
:4024C0009B1AED184FF000091A344D4509D00123224639463046C0470130D5D009F10109F3E70020BDE8F0872DE9F04317460A7E85B06E2A984606460C460C9B01F1430E48
:4025000000F0AE8011D8632A22D009D8002A00F0BB80582A40F0CA8081F84520834955E0642A1ED0692A1CD0C0E0732A00F0B08009D86F2A2ED0702A40F0B8800A6842F08E
:4025400020020A603EE0752A24D0782A3AD0ADE01A6801F14205111D1960136884F84230A8E021681A6811F0800F02D0111D196008E011F0400F02F10401196002D0B2F958
:40258000003000E01368002B3CDA2D225B4284F8432037E021681A6811F0800F02D0111D196007E011F0400F02F10401196001D0138800E01368227E5C496F2A14BF0A220D
:4025C00008221BE078225A4984F845202268186812F0800F00F104051D6003D1550601D5038800E00368D00744BF42F0200222601BB9226822F0200222601022002084F819
:40260000430001E049490A226568002DA56008DB206820F0040020602BB9002D7DD175460CE0002B79D07546B3FBF2F002FB1033CB5C05F8013D03460028F5D1082A0BD10E
:402640002368DA0708D5236962689A42DEBF302305F8013C05F1FF35C5EB0E0323612EE008681A6810F0800F496903D0101D1860136808E010F0400F02F1040018601368F1
:4026800001D0198000E0196000232361754616E01A68111D1960156800216268284600F049F808B1401B6060636804E004F1420584F8422001232361002384F84330CDF8B3
:4026C00000803B4603AA21463046FFF797FE013002D14FF0FF3026E023692A4639463046C0470130F5D023689B0710D5002504F1190907E001234A4639463046C047013048
:40270000E7D00135E368039A9B1A9D42F2DBE068039B9842B8BF184605E00B7804F1420584F842308AE705B0BDE8F0831F2F0000302F000010B5C9B202449042034605D0DB
:402740001C7801308C42F8D1184610BD002010BD884210B501EB020301D8421E0BE09842FBD28118D21AD34204D013F8014D01F8014DF8E710BD994204D011F8014B02F8E2
:40278000014FF8E710BD000038B50546002944D051F8043C0C1F002BB8BFE41800F0D4F81E4A1368114613B96360146030E0A3420DD92268A018834201BF18685B6812184E
:4027C000226063600C6023E0A24203D813465A68002AF9D118681918A1420BD12168014458188242196013D110685268014419605A600DE002D90C232B6009E02168601872
:40280000824201BF106852680918216062605C602846BDE8384000F098B838BD2083FF1F70B5CD1C25F0030508350C2D38BF0C25002D064601DBA94202D90C23336046E075
:4028400000F082F8234B1C681A462146A1B10B685B1B0ED40B2B03D90B60CC18CD501EE08C420BBF63684B681360636018BF0C4615E00C464968E9E7174C23681BB9304627
:4028800000F052F820602946304600F04DF8431C18D0C41C24F00304A0420DD12560304600F053F804F10B00231D20F00700C31A0ED05A42E25070BD211A304600F034F832
:4028C0000130EBD10C233360304600F03EF8002070BD00BF2083FF1F1C83FF1FF8B5074615460E4621B91146BDE8F840FFF798BF1AB9FFF749FF2846F8BD00F027F88542F5
:402900000ED929463846FFF78BFF044650B131462A46FFF7EDFB31463846FFF735FF01E03046F8BD2046F8BD38B5064C0023054608462360FDF742FF431C02D1236803B1C9
:402940002B6038BD8C88FF1F7047704751F8040C0028BEBF091851F8043CC018043870470000000000000100010001000100010001000100010002000200020002000200B2
:402980000200020002000200020002000200030003000300030003000300030004000400040004000400040005000500050005000500060006000600060007000700070096
:4029C000080008000800090009000A000A000A000B000B000C000C000D000D000E000F000F00100011001100120013001400150016001700180019001A001B001C001D00CF
:402A00001F0020002100230024002600280029002B002D002F0031003400360038003B003D0040004300460049004C004F00530057005B005F00630067006C00700075007A
:402A40007B00800086008C00920098009F00A600AD00B500BD00C500CE00D700E100EB00F50000010B011701240130013E014C015B016A017A018B019C01AF01C201D601D4
:402A8000EA01000217022E02470261027C029802B502D402F402160339035D038303AB03D50300042D045D048E04C204F80430056B05A805E8052B067106BA0606075607DD
:402AC000A90700085B08B9081C098309EF09600AD50A500BD10B560CE20C740D0D0EAC0E520F0010B510731138120713DF13C014AB15A116A117AD18C419E91A1A1C581DC8
:402B0000A51E00206B21E52271240E26BD278029562B412D422F5A318933D1353338B03A493D0040D542CB45E2481C4C7A4FFF52AC56825A845EB3621267A26B6670607528
:402B4000927A0080AA85958BC3913798F59EFEA558AD04B508BD66C524CE44D7CCE0C0EA25F5FFFFFC60DAF266B6BEE0FEF6EE3E9C7A9E8E0100000057656C636F6D6520C7
:402B8000746F205265616374696F6E2047616D650A000000526F756E6420257520537461727465643A200A5072657373206F6E65206F66207468652074776F2062757474FE
:402BC0006F6E7320746F2073746172742E2E200A000000004772656174202D20436F727265637420427574746F6E2050726573736564200A5265616374696F6E2054696D41
:402C00006520696E206D733A20257500496E636F727265637420427574746F6E2050726573736564200A0000546F6F20736C6F77200A0000436F727265637420427574740D
:402C40006F6E2050726573736564203A202575200A20546F74616C207265616374696F6E2074696D653A202575200A2041766572616765205265616374696F6E2054696D43
:402C8000653A202575000000405100403000F0510040100000000140001000140140000800400140000A004C014000020050014020000000FF00010102020202030303039B
:402CC00003030303040404040404040404040404040404040505050505050505050505050505050505050505050505050505050505050505060606060606060606060606A0
:402D00000606060606060606060606060606060606060606060606060606060606060606060606060606060606060606060606060606060607070707070707070707070707
:402D40000707070707070707070707070707070707070707070707070707070707070707070707070707070707070707070707070707070707070707070707070707070793
:402D80000707070707070707070707070707070707070707070707070707070707070707070707070707070707070707070707070707070701000000BC2D000000000000BD
:402DC00001000000010000000800000000000000FFFFFFFF000000000000000000000000000000000000000040420F0000000000010000001000000000000000010000002A
:402E0000000000000100000001000000010000008000000010000000010000000100000002000000040000000800000010000000200000004000000000000000010000007E
:402E40001000000001000000210200004D02000071020000991E0000991E0000991E000000000000000000000100000000000000416C61726D5F536C6F77000065765F6C9F
:402E8000656674427574746F6E00000065765F7269676874427574746F6E000065765F72657365740000000065765F736C6F770065765F776169744F7665720065765F77EB
:402EC00061697453746172740000000065765F73636F7265000000007265735F7072696E746600005461736B5F496E69740000005461736B5F4576656E7400005461736BE7
:402F00005F4261636B67726F756E64004300232D302B2000686C4C0065666745464700303132333435363738394142434445460030313233343536373839616263646566FC
:402F400000000000F8B500BFF8BC08BC9E4670475900000039080000F8B500BFF8BC08BC9E46704735000000782F0000C880FF1F980100003006000000000000FFFF0100A9
:402F80009088FF1F702E000000000000FFFFFFFFFFFFFFFFFFFFFFFFFFFFFFFFFFFFFFFFFFFFFFFFFFFFFFFFFFFFFFFF0100000002000000FFFFFFFF00000000040000005A
:402FC00000000000010000000100000001000000FFFFFFFFFFFFFFFFFFFFFFFFFFFFFFFFFFFFFFFFFFFFFFFFFFFFFFFFFFFFFFFFFFFFFFFFFFFFFFFFFFFFFFFFFFFFFFFFFE
:40300000FFFFFFFFFFFFFFFFFFFFFFFFFFFFFFFFFFFFFFFFFFFFFFFFFFFFFFFFFFFFFFFFFFFFFFFFFFFFFFFFFFFFFFFFFFFFFFFFFFFFFFFFFFFFFFFFFFFFFFFFFFFFFFFFD0
:40304000FFFFFFFFFFFFFFFFFFFFFFFFFFFFFFFFFFFFFFFFFFFFFFFFFFFFFFFFFFFFFFFF0300000003000000030000007C2E00008C2E00009C2E0000A82E0000B02E000085
:40308000BC2E0000CC2E0000D82E0000E42E0000F02E0000FC2E0000FC86FF1F00000000D084FF1F00000000000000000000000000000000000000000000000000000000BA
:4030C00000000000000000000C2F00000000000000000000000000000000000000000000000000000000000000000000000000000000000000000000000000000000000095
:403100000000000000000000F881FF1F00000000000000000000000000000000000000000000000000000000000000000000000000000000000000000000000000000000F8
:40314000000000000000000000000000000000000000000000000000000000000000000000000000000000000000000000000000000000000000000000000000000000004F
:40318000000000000000000000000000000000000000000000000000000000000000000000000000000000000000000000000000000000000000000000000000000000000F
:4031C00000000000000000000000000000000000000000000000000000000000000000000000000000000000000000000000000000000000000000000000000000000000CF
:40320000000000000000000000000000000000000000000000000000000000000000000000000000000000000000000000000000000000000000000000000000000000008E
:020000040003F7
:0200000480007A
:4000000008520040066400400365004041020140200301400205014056060140330701404A080140300901404B0A01402A0B0140440C0140260D01403F0E0140220F01406E
:4000400009150140461601403917014057180140441901403C1A01404A1B0140034001400C41014007420140064301400C45014004460140014701400A480140034901407C
:400080000E4C01400D4D01400850014001510140004001C0083509A31028111861806440830D890D8A0D8B0D8D0D8F0D860F88388B722201230127013001330136014010D6
:4000C000410649FF4AFF4BFF4DA04F0450185280580459045A045B045F01604062C06440654066C068C06AC06CC06EC09B019E01A101A602AA01B002B201B701BE04C040A2
:40010000C106C5D1C702C813C9FFCAFFCBFFCDAFCE0FCF04D018D405D804D904DA04DB04DF01E040E2C0E440E540E6C0E8C0EAC0ECC0EEC0098010201208168019061C40DF
:400140001D801F802240272029022C202F80302040404580482049014A084E08520859055A8076808720C201C416CAC1CC04D011D224D60BA080AC8000020101050607083C
:4001800008010B1011011506170819061B181F0A21012601280129142B082D01331E34033701382039803B083F4040244103450C47EB483149FF4AFF4BFF4EF04F44500C05
:4001C000580459045A045C115D015F0166C06A406B028409861087038A038B058C108F019302941C960298109A0C9B06A414A80CA906AA11AB01B21FB507BB20C002C7400B
:40020000C9FFCA07CBFFCC40CD20CEF0CF05D008D804D904DA04DC11DD01DF01E040E1A8E240E3200010020203200644070808080910110812041620172018101F20200408
:40024000230824202640272028082B382C802D802E202F083202332035023680372838243A403F2642044510464047284F0452C2550456028B018C10A080C057C206C466EA
:40028000CAB4CCF5CEEED0E4E080030204010801100116021B0120012A0230013101330236023E014030410649FF4AFF4BFF4DA04F0450185280580459045A045B045F0199
:4002C000604062C06440654066C068C06AC06CC06EC08604880290019601AA04B001B204B402BB02BE14C030C106C5D1C702C813C9FFCAFFCBFFCDAFCE0FCF04D018D40552
:40030000D804D904DA04DB04DC10DF01E040E2C0E440E540E6C0E8C0EAC0ECC0EEC0012003100424080409010C040E200F8012081502171019141A401E801F802040210141
:400340002501271036103C0241084508480849094C085008580159045A4064016640740181108D209D09A108A408C066C23CC452CC20CE80D042D224D60BE010E404060272
:40038000120116041802260127012A0430023204340135013E044040410349FF4AFF4BFF4DA04F0450185405580459045A045B045F01604062C06440654066C068C06AC06B
:4003C0006CC06EC087019202A602A901AA01AE04B004B201B402B701BE10C040C103C5D0C620C701C81AC9FFCAFFCBFFCDAFCE0FCF04D018D280D405D804D904DA04DB043C
:40040000DF01E040E2C0E440E540E6C0E8C0EAC0ECC0EEC00108092A0D02100811081628174019041A401B201D021E081F042120264029082F043E084102422045024620B1
:400440004D015504562859055A405D015E8877408F209D08A108AA40C004C21EC4E6CA22CE40D0C3D6DBEC012E0132014020410649FF4AFF4BFF4DA04F045018528058044A
:400480005A045B045F01604062C06440654066C068C06AC06CC06EC086048A018B02930496049B039C02A602AA01B002B101B201B304B404B702BE04C030C106C5D1C702C9
:4004C000C813C9FFCAFFCBFFCDAFCE0FCF04D018D280D405D804D904DA04DB04DF01E040E2C0E440E540E6C0E8C0EAC0ECC0EEC00010010809080A0210201208178018089D
:4005000019041A401D0820102241232030203102381040104720482049014A084E08520859055A40710277808C04B101C006C205C486CC05CE04D022D224D60B17012701EC
:4005400031014030410649FF4AFF4BFF4DA04F04501859045A045F01604062C06440654066C068C06AC06CC06EC08A028B0196019F02A101AA02B302B402B601B701BE10D1
:40058000C030C102C5D0C610C702C81AC9FFCAFFCBFFCDAFCE0FCF04D018D280D405D804D904DA04DB04DF01E040E2C0E440E540E6C0E8C0EAC0ECC0EEC004100F201608C4
:4005C0001E081F8021012410250826402B102F80310837403F2040104508460848044F015404560857105E885F017740C040C220C440CA82CC12CE20D062D204D6D088057A
:400600008C088D019C0D9D01AC09B610E802EE08070119011F01210225012B01310135023F115401560459045B045D105F018204840385048718880289308B0C8E049320FA
:4006400099049B389F0CA201A301A730A803AB02AF02B204B33CB403B703B820BB08BE14BF40C062C103C205C401C5C0C70EC812C9FFCAFFCBFFCC62CDA0CEF0CF41D00C70
:40068000D804D904DA04DC10DD01DF01E640E702E910EA30EB10ED10EE10EF12009601080220030812C413201A1420112788280529012B202D092E022F0832A236803720DD
:4006C00038103A043F04402948414A0850085D215F88652267048208850290049304960498209A429B20A202A320A708A902B180B240B420C00FC40ACAEFCC3DCE46D00E10
:40070000D20CD6F0D880E204EA20EC80EE080104050607010E011107150616011D072301250229012B06320137073E044020410649FF4AFF4BFF4DA04F045018541858048B
:4007400059045A045B045C105D105F01604062C06440654066C068C06AC06CC06EC082C384188A048C1C8EC190DF94C098089C1C9EC2A010A480A844AA20ACC7AE18B0C035
:40078000B420B61FBA80C020C103C501C60DC702C815C9FFCAFFCBFFCDAFCE0FCF04D018D804DA04DB04DC01DF01E040E2C0E440E540E6C0E8C0EAC0ECC0EEC001280382A3
:4007C0000702085109040D08100A1101130819221B401F04268028402B402C102E282F803441350C3C043D013E024104431047104A104E08510452485D026680670868801D
:400800006A246B01700171A0721080128230860488808C048F02930294249B109E40A240A618A740AF80B440B701C08FC22FC40FCAE0CCD0CEC0D026D220D680D830E0027C
:40084000E404EA4000030104020C040C050208040C08100F110714031506180F19061B011E031F01200C2106220323012402250127062801320F35073A083B2058045904FC
:400880005C115F01853E893E8D128F0C9524970A98019B01A301A501A801A908AB30AC01AD01B338B506B601B701B980D602D710D804D904DB04DC11DD10DF0100AA08012C
:4008C00009840B040E08104813081550182019081D801F802004222023042504270A284029082C412D082E202F013001310432203380362037083A0A3D103E845E806D504B
:400900006E0C74547504760A880989088A808B088D048E208F809302942498409C019D049E0A9F0AA240A408A504A780A9A0AA10AD08AE80B301B401B680C00FC24FC4CE66
:40094000CAF3CC6FCE73D610E240E6E0E805EC1133803410CC3006020B100C026304670887049C10A780C080C230D8C0E240931097089A029C10A780AC02E8108A029310BC
:4009800097089A029C10A78052205C025D4060108E209802B002D404D605D802E008E8048D409540A810E002800187809540A780A940AF04B010B310E610EC20EE100140D1
:4009C0009540C040534156105F82600863016620830186108B409002D407D607D803E4011020700188209002AA20AB03B380B408C408DC01E604E802EC04000308010A023F
:400A00000C030E0110031A021C03000F38C0C000C000000080004080800080000000000000FFFF00FF00000000393900390000000420200000000000000000000000000097
:400A40000000000000000000000000000000000000000000000000000000000000000000000000000000000000000000000000000000000000000000000000000000000076
:400A80000000000000000000000000000000000000000000000000000000000000000000000000000000000000000000000000000000000000000000000000000000000036
:400AC00000000000000000000000000000000000000000000000000000000000000000000000000000000000000000000000000000000000000000000000000000000000F6
:400B000000000000000000000000000000000000000000000000000000000000000000000000000000000000000000000000000000000000000000000000000000000000B5
:0200000490006A
:0400000000000007F5
:0200000490105A
:04000000BC90ACAF55
:0200000490303A
:020000003A9E26
:0200000490402A
:4000000000000000000000000000000000000000000000000000000000000000000000000000000000000000000000000000000000000000000000000000000000000000C0
:400040000000000000000000000000000000000000000000000000000000000000000000000000000000000000000000000000000000000000000000000000000000000080
:400080000000000000000000000000000000000000000000000000000000000000000000000000000000000000000000000000000000000000000000000000000000000040
:4000C0000000000000000000000000000000000000000000000000000000000000000000000000000000000000000000000000000000000000000000000000000000000000
:0200000490501A
:0C00000000012E16106900002E2B4B078B
:00000001FF