:400000000080002011000000B50A0000B50A000008B5064A136843F020031360044B1A6803F53F5302331A6000F064FDE8460040FA46004010B5054C237833B9044B13B147
:400040000448AFF300800123237010BDA882FF1F000000000C250000084B10B51BB108490848AFF300800848036803B910BD074B002BFBD0BDE81040184700BF00000000CF
:40008000AC82FF1F0C250000C880FF1F0000000008B562B645F6BF52054B1A60054A136843F002031360002001F0F4FAFBE700BF14E000E010E000E008B500F04DF901F0D5
:4000C00057FB0B4A136843F005031360012000F099FD002000F096FD032000F093FD64220121042000F054FE01F01AFB08BD00BF10E000E000B583B000F054F91F2001F086
:40010000EBF801A9002001F047F8019801F016F8019800F093F9F1E700BFFDE708B501F0FFFA08BD08B500F059FB01F0F9FA08BD08B5002000F0AAFF08BD00BF684620F0EC
:4001400007018D4619B572B6EFF311841E4B1B68DBB20F2B10D9103B23F0030202F1604202F564421168DB0003F01803E0229A400A4022FA03F306E00F2B03D1134B1B6897
:400180001B0E00E0002383F31188114A136801331360012B01D101F00DFF62B6FFF7C8FF72B684F3118801F087F9094A1368013B13601BB901F007FF01F0CBFE62B6BDE84F
:4001C00019408546704700BF04ED00E020ED00E06483FF1F08B501F009FB012803D10221002000F0F9FF01F0F9FA012803D10421002000F0F1FF08BD684620F007018D4664
:4002000019B572B6EFF311841E4B1B68DBB20F2B10D9103B23F0030202F1604202F564421168DB0003F01803E0229A400A4022FA03F306E00F2B03D1134B1B681B0E00E0A8
:40024000002383F31188114A136801331360012B01D101F0AFFE62B6FFF7BCFF72B684F3118801F029F9094A1368013B13601BB901F0A9FE01F06DFE62B6BDE819408546F9
:40028000704700BF04ED00E020ED00E06483FF1F70B50E461546074C34F8100001F0A0FB34F8160001F080FC34F8150001F00AFC002070BD1025000008B5034B33F8100067
:4002C00001F0E4FC002008BD1025000008B5034B33F8100001F0C0FD002008BD1025000008B5034B33F8100001F042FD002008BD102500000F290ED838B50C46054601F0DC
:4003000061FA064B185D064B5C55064B585501F053FA002038BD6FF01300704710270000CC80FF1FC482FF1F08B5FF22044B1A5401F048FA002001F03FFA002008BD00BF5F
:40034000CC80FF1F08B50020FFF7EEFF0120FFF7EBFF002008BD00BF08B501F003FC01F073FC01F08DFB01F0C7FD01F0DFFC01F051FDFFF7E7FF01F085FA0022114610464D
:40038000FFF786FF0020FFF7ABFF0020FFF79EFF0020FFF791FF0122014B1A70002008BDC882FF1F30B583B01F4C04F10801002001F024F8A06801F0CFFF1C4801F0AEFAF1
:4003C0002378632B0DD91A4AA2FB0312520902F130018DF80410642101FB1233DBB2012100E00021092B0ED9481C124AA2FB0342D20802F1300501AC655402EB8202510063
:400400005B1ADBB2C1B24A1CD2B201A8303343540024845401F082FA074801F07FFA024B1C7603B030BD00BFC882FF1F242700001F85EB51CDCCCCCC4427000030B58DB009
:40044000B94B1B7E032B00F2BF81DFE813F0040022004D00140110F0060F00F0B581012000F044FC01F0A0FFB04AA0FB0223C11A03EB5101890A40F2D17303FB1101002201
:4004800001F57A71012000F083FC0122A64B1A769AE110F0010F00F0978101F085FFA44B184003D5013860F0010001300130C1B29D4CA1700020FFF71DFFA1780120FFF745
:4004C00019FF002000F012FC00224FF47A71104600F05EFC04F10801002000F08FFFA3686360022323766FE110F00E0F00F06C81042859D0082800F0AB80022840F0AB803F
:40050000894B9B78012B4BD1874C63780133637004F10801002000F071FFA3686168591AE16023690B442361D9B930238DF820300A238DF8213000238DF8223029E0541C42
:400540007C4BA3FB0103DB081D4603EB830358000B1A0CA90A44303302F8203C2946E2B200E000220029EAD1002309E0591C013AD2B20CA8104410F8204C08A8C454CBB235
:40058000002AF3D15A1CD2B208A90A20C85400238B54694801F0C2F908A801F0BFF95AE0664801F0BBF956E05F4B9B78022B4BD15D4C63780133637004F10801002000F042
:4005C0001DFFA3686168591AE16023690B442361D9B930238DF820300A238DF8213000238DF8223029E0541C524BA3FB0103DB081D4603EB830358000B1A0CA90A443033EC
:4006000002F8203C2946E2B200E000220029EAD1002309E0591C013AD2B20CA8104410F8204C08A8C454CBB2002AF3D15A1CD2B208A90A20C85400238B543F4801F06EF9BA
:4006400008A801F06BF906E03C4801F067F902E03B4801F063F9022000F048FB00224FF49671022000F094FB2F4B1A7801321A7003221A76A8E010F0100F00F0A580FFF776
:4006800061FEFFF78FFE284B1B780B2B40F099802C4801F043F9244A13695178B3FBF1F15161D9B930238DF810300A238DF8113000238DF8123029E0541C1E4BA3FB010332
:4006C000DB081D4603EB830358000B1A0CA90A44303302F8103C2946E2B200E000220029EAD1002309E0591C013AD2B20CA8104410F8104C04A8C454CBB2002AF3D15A1CDD
:40070000D2B204A90A20C85400238B54064B597861BB30238DF820300A238DF8213000238DF822303AE000BFC882FF1F8B53030601000080CDCCCCCC70270000A4270000A1
:40074000C4270000D8270000541C204BA3FB0103DB081D4603EB830358000B1A0CA90A44303302F82C3C2946E2B200E000220029EAD1002309E0591C013AD2B20CA81044E2
:4007800010F82C4C08A8C454CBB2002AF3D15A1CD2B208A90A20C85400238B540C4801F0BDF804A801F0BAF80A4801F0B7F808A801F0B4F8084B00221A705A605A611A611C
:4007C0005A700022044B1A760DB030BDCDCCCCCCE4270000F8270000C882FF1F00B583B01F4B93F900201F494B6A322000FB02334B62B3F5FF7F06DB4FF4FF724A62FF22EF
:40080000174B1A7007E0002B05DC0022154B5A620122134B1A70002110E0C1EB0123114A526AD31A002BB8BF5B42D3F1FF0300D5002302AA0A4402F8043C01310229ECDD54
:400840009DF80400FFF74CFD9DF80500FFF73EFD9DF80600FFF730FD03B05DF804FB00BFCE80FF1FC882FF1FFEE700BFF0B40022174611E050F82760F3B226F0FF0608E04E
:4008800001EB420511F812406D78A5550132013BDBB2002BF4D10137232FEBD9F0BC7047064B1B78DBB203F00701054A11701B09013213704422034B1A707047CF0100490A
:4008C0006E5800407658004008B50A46002101F03AFD08BD38B50223254A1380182225490A70192502310D8002310A70224A137008224FF040231A70032103F5007319708B
:400900001E4B1B78DBB21E490B701E4B1A8041F25122023B1A8000240CE01B4B1B7803F0010343EA440404F003044FF4F07001F0F3FA013D0DB1032CEFD115B90320FFF709
:4009400093FF124B4FF480721A8007221A7000220F490A704820023108701A700222033B1A700C4A137843F00303137038BD00BF8040004082400040004300400801004961
:40098000A146004022420040254200400440004006400040A243004008B501F0C9FC08BD38B572B6304A137843F02003137000240CE02E4D630019194A0011462A440846EE
:4009C00091882858FFF780FF0134E4B2062CF0D927494FF09040FFF749FF264A137843F0020313701032137843F002031370224C237843F040032370A2F58632513A1378B1
:400A000043F01003137008221C491D48FFF7C4FF0A221C491C48FFF7BFFF08221B491C48FFF7BAFF08221B491B48FFF7B5FF08221A491B48FFF7B0FF1A4A137843F0080399
:400A40001370194D61232B70FFF744FF81232B700122164B1A70FFF723FF0E2221461448FFF79AFF38BD00BFE8460040102800009000004803500140A04300400C0A004807
:400A800002510040140A0048C0510040200A004812510040280A004822510040300A004832510040224300400048004004000840B043004008B501F00FFC03680C2B00D18D
:400AC000FEE7FEE708B5094B1A681044084BC31A802B02DC054B186005E001F0FDFB0C2303604FF0FF32104608BD00BFD080FF1F1089FF1F08B5104E104D16E029686B6823
:400B0000AC68002204E051F8040B43F8040B0432A242F8D1E868002203E0002143F8041B04328242F9D11035013E002EE6D101F0D9FBFFF7ADFAFEE701000000C42B0000E2
:400B400008B5104A104B1A60104A136843F40073136000230AE0032B03D80D4A52F8231000E00C490C4A42F8231001332F2BF2D90A4B1A780A4B1A70074A0A4B1A60FFF780
:400B80000FFF08BD0004FA050CED00E014ED00E000000000B50A00000080FF1FBC760040C080FF1F08ED00E001BE704770B504460E46074B1D681F2802D90020FFF7F4FF68
:400BC00004F01F04103455F8240045F8246070BD08ED00E038B504460D46072902D90020FFF7E2FF1F2C02D90020FFF7DDFF04F01F0000F1604000F564406D01EDB2057003
:400C000038BD00BF38B5EFF3108572B604284ED82D4B53F82030002B4BD02B4A013B42F820302A4B53F82030032B07D10222274B43F820200022264B43F8202000F0ACFCC1
:400C4000244B1B68002B36D1234B1C6800F082FCB0F1FF3F31D0214B53F82020204B1B689A422CD9B4F1FF3F03D00221174A42F824101C4A52F820201343194A1360002264
:400C8000124B43F8202000F021FC174B53F820304BB10024144B43F8204040F0004001F09BF920460CE001F097F9002008E0032006E0042004E0002002E0002000E0002035
:400CC00085F3108838BD00BF4481FF1FF081FF1F1C83FF1F6483FF1FD881FF1F742A00003883FF1F482A0000F482FF1FEFF3108272B604283CD803012249CB58002B39D066
:400D000010B400EB40018B001F49CC581F4B03EBC4035968884209D11A4B03EB0013D9681A4B03EBC40461600DE01946154B03EB0113DB689842F8D1124B03EB0014E46866
:400D400003EB0111CC600F4B03EB0013DC68B4F1FF3F08D00B4B03EB0011896803EB04139C6821449960030100200649C85005E0032000E0052082F31088704782F31088D7
:400D800010BC70479483FF1FAC290000E880FF1FF8B5EFF3108472B6042825D800EB4005AB00184DEB5803EB4306B500164E75598D421BD34AB103EB43039E00124B1E44C2
:400DC000B3689A4214D3954214D3A9B103010F4DEB589BB90301EE180127EF507260013900F086F800200AE0032008E0082006E0082004E0082002E0082000E0072084F33C
:400E00001088F8BDAC290000102A00009483FF1F18B108B5C368984708BD704708B508B1406800E00020042816D80C4B53F8203093B10A4A013B42F82030094B53F820309E
:400E4000032B07D10222064B43F820200022054B43F8202000F0A0FB08BD00BF4481FF1FF081FF1F1C83FF1F18B1034640689B6801E00023184604281DD80F4A52F820202E
:400E8000CAB10E4A52F82010032914D010B50C4C54F820201A4344F820200A4A52F82020134207D0012905D10222044B43F8202000F072FB10BD7047202A0000F081FF1FA1
:400EC0001C83FF1F0883FF1F80B108B50378012B06D013B1032B06D008BDFFF79FFF08BDFFF7C2FF08BDFFF793FF08BD704700BF30B400EB40029300214AD258214B03EB69
:400F0000C2035C68B4F1FF3F04D11E4B03EBC20250602DE01C4B03EB04139B6899420AD2184D05EBC2025060174A02EB04125B1A93601DE01C46144B03EB04139A68891A75
:400F4000DB68B3F1FF3F05D00F4A02EB031292689142EFD2B3F1FF3F05D00B4A02EB031295686D1A9560084A02EB0414E0601C46054B03EB00108160C46030BC704700BF59
:400F8000AC290000E880FF1F9483FF1F38B5394A02EBC0035C6852F83030013342F8303000EB40018A0034498A58934203D90022304B43F83020B4F1FF3F59D02F4B03EBE3
:400FC00004139B68002B4ED1214600E019462B4B03EB0113DB68B3F1FF3F05D0274A02EB03129268002AF1D0244A02EB01114FF0FF32CA601F4A02EBC0004360B3F1FF3F7B
:4010000007D01E4A02EB03139A68013A9A6000E02C4604EB44029300194A13441B7A7BB904EB44029300164A13445A68154B53F8223003EB83039A0013481044FFF744FF66
:401040000E4B03EB0413DD68596821B101392046FFF74EFF03E024010022084B1A51B5F1FF3FD5D138BD054A02EB0414013BA36038BD00BFE880FF1F102A00009483FF1FB4
:40108000AC290000FC2900004829000038B5EFF3108572B6002838D1FFF778FF204B1B68002B34D11F4B1C6800F054FAB0F1FF3F2FD01D4B53F820201C4B1B689A422AD9B7
:4010C000B4F1FF3F03D00221194A42F82410194A52F820201343154A13600022144B43F8202000F0F3F9144B53F820304BB10024114B43F8204040F0004000F06DFF204616
:401100000AE000F069FF002006E0032004E0002002E0002000E0002085F3108838BD00BF6483FF1FD881FF1F742A00003883FF1FF081FF1F482A0000F482FF1FEFF310837D
:4011400072B6114A1168114A126882B9B1F1FF3F0FD00F4A52F821206AB110B40D4C54F8212022EA000044F82100002007E0022002E0022000E0012083F31088704783F329
:40118000108810BC704700BFD881FF1F6483FF1F202A00001C83FF1F04280FD80B4B53F820306BB10A4B53F82030032B0AD059B1084B53F820300B600020704703207047A6
:4011C00001207047072070470E207047202A0000F081FF1F1C83FF1F38B5EFF3108472B6042853D8324B53F82030002B50D0314B53F82030032B4DD02F4D55F820200A43C1
:4012000045F820202D4A52F82020114244D0012B44D10222274B43F8202000F0BDF9284B1B68002B3CD1274B1D6800F093F9B0F1FF3F37D0244B53F82020244B1B689A4282
:4012400032D9B5F1FF3F03D002211A4A42F825101F4A52F8202013431C4A13600022154B43F8202000F032F91A4B53F820304BB10025184B43F8205040F0004000F0ACFE43
:40128000284612E000F0A8FE00200EE003200CE001200AE0072008E0002006E0002004E0002002E0002000E0002084F3108838BD202A0000F081FF1F1C83FF1F0883FF1F92
:4012C0006483FF1FD881FF1F742A00003883FF1F482A0000F482FF1F38B5EFF3108472B63A4B1D683A4B1B68002B63D1B5F1FF3F62D0384B53F82530B3F1FF3F5ED1364B2E
:4013000053F82530002B5BD0344B53F82530034258D1334B43F825000122324B43F82520314B53F8250031490B6823EA00030B602F4B43F825202F4B53F82520234B1A60EC
:4013400000F008F9B0F1FF3F06D02B4B53F82020264B1B689A420DD81C4B1868B0F1FF3F03D000221F4B43F8202040F0004000F033FE1AE000211B4A42F820101A4A52F848
:4013800020201343194A136000F0A0F8184B53F8203043B10022164B43F8202040F0004000F01AFE01E000F017FE00200C4B43F8250008E0022006E0022004E0062002E016
:4013C000012000E0002084F3108838BDD881FF1F6483FF1FF480FF1F202A00001C83FF1F0883FF1FF081FF1F482A00003883FF1FF482FF1FDC81FF1F742A0000EFF310830E
:4014000072B629B130B9054A52F830200A6002E00E2000E0032083F310887047E880FF1F08B500F053F8084B53F8203043B10022054B43F8202040F00040044B186008BD4D
:40144000024B186008BD00BFF482FF1F6883FF1F10B500F07FF8124B1B68B0F1FF3F1AD0104A52F82010104A1268914213D9B3F1FF3F03D002240D4941F8234000210B4B06
:4014800043F820100A4B53F820301A43064B1A60FFF7C6FF10BD43F00043064A136010BDD881FF1F742A00003883FF1FF081FF1F482A00006883FF1F034B1B6813B100226C
:4014C000014B1A60704700BF5883FF1FF0B4184B19880B0A174AD356B3F1FF3F01D1535601E008335BB2144D55F82320134850F82200134E56F8224045F82340114D2F688E
:4015000046F822702A60B4F1FF3F09D10E4A42F82340012202FA03F321EA0301044B19800A4B19680A4A42F820101860F0BC70473483FF1F3C2800009881FF1F6C83FF1FA7
:401540001C81FF1F3083FF1F5881FF1FD881FF1FDC81FF1F0C4B1A88130A0C49CB56B3F1FF3F01D18B5601E008335BB2B3F1FF3F06D0074A52F82320064B53F822007047A1
:401580004FF0FF30704700BF3483FF1F3C2800009881FF1F6C83FF1F30B4144B53F82020134C2368134951F823502560124C44F823004FF0FF3441F82340104951F82210D6
:4015C000A1420AD10E4951F820400E480188214301800D4941F8223002E0064840F82130064941F8223030BC704700BF3081FF1F3083FF1F1C81FF1F6C83FF1F5881FF1F34
:40160000742A00003483FF1F9881FF1F10B150F8210070474FF0FF30704700BF0122014B1A60FEE76083FF1F70B50546124B53F8306000241CE0104B03EBC503214658686C
:40164000FFF7E4FF0D4A52F82030013B42F820300B4B53F82030032B07D10222084B43F820200022074B43F82020FFF795FF0134B442E0D370BD00BF3C2900004481FF1F66
:40168000F081FF1F1C83FF1F18B908B5FFF7CCFF08BD7047194B1A4ADA621A4A9A631A4ADA63EFF3108272B6184B1B6813BB10B5044600F05DF8164B1C600122134B1A6091
:4016C0002046FFF7E1FFFFF745FFB0F1FF3F0ED0104B53F82030104A11680B43136000220E4B43F82020FFF7F1FE00F075FC62B6FFF794FF82F31088072070470080FF1FC7
:40170000991F00005D1F00003D0100006083FF1F7885FF1F482A00003883FF1FF081FF1F08B5EFF3108272B60D4B19680D4B1B6863B90D4B53F82130B3F1FF3F08D14FF02A
:40174000FF300A4B43F82100002002E0022000E0062010B9084600F098FC82F3108808BDD881FF1F6483FF1FF480FF1F0881FF1F38B50D4B1D68EFF3108472B600F0DCFB0E
:401780000A4A136843F07F431360094B6B6407210120FFF71FFA074A136843F00203136084F3108838BD00BF08ED00E020ED00E0F901000000E100E0014B1870704700BF76
:4017C00079650040044A137803F0DF03400100F0200018431070704730510040024B1878C0F38000704700BF31510040024B1878C0F34010704700BF0151004008B57222F8
:401800000B4B1A702022033B1A700A490020FFF7CDF907210020FFF7DDF90622064B1A70472210331A70022203F24F131A7008BD8B650040411900002764004010B500F06E
:4018400073FB04460D4A137843F020031370033A137843F010031370023A137843F0100313700123064A1360A2F5C072136000F095F8204600F05CFB10BD00BF9B650040BB
:4018800080E200E008B5054B1B7823B9FFF7B6FF0122024B1A70FFF7D1FF08BD4083FF1F10B4194B99885B889BB2994205D25A1E914214BF0022012206E0CA1A40F28F142C
:4018C000A24214BF00220122002AEAD1994207D10E4B1B7813F0040F02D10D4B187010E0B1F5C87F00D300210A4B58540131064B9980064B1B7813F0020F02D00122064BF3
:401900001A6010BC704700BF4083FF1F66650040466400407C87FF1F00E200E038B5074B1B782BB938BDFFF7BBFF0134A4B201E005460024285D0028F5D138BD4083FF1FB3
:4019400015E0114B1B889BB2B3F5C87F02D300220D4B1A800C4A13889BB20C49CB5CDBB20B490B7013889BB201339BB21380064B1B889BB2074A1288934204D0064B1B7883
:4019800013F0040FDDD070474283FF1F7C87FF1F466400404483FF1F66650040054A137843F0020313701032137843F002031370704700BFA2430040024A137843F080038A
:4019C000137070477F640040014B1880704700BF1C680040014B1880704700BF9C680040014B1880704700BF5C680040014B1870704700BF8F640040014B1878704700BFA1
:401A00006F640040014B188880B27047BC68004008B501E0FFF7F6FFFFF7EEFF10F0100FF8D108BD10B5144A137803F0C00343F0090313701F32137843F0010313700F4C2A
:401A4000237843F0010323706420FFF7BDFF6420FFF7C0FF3220FFF7C3FF0020FFF7C6FF00F062FA237843F01003237000F060FAFFF7CEFF10BD00BF7F6400409F640040EE
:401A800008B5054B1B7823B9FFF7CCFF0122024B1A70FFF791FF08BD4783FF1F024A137843F08003137070477B640040014B1880704700BF14680040014B1880704700BF66
:401AC00094680040014B1880704700BF54680040014B1870704700BF8B640040014B1878704700BF6B640040014B188880B27047B468004008B501E0FFF7F6FFFFF7EEFFDD
:401B000010F0100FF8D108BD10B5144A137803F0C00343F0090313701F32137843F0010313700F4C237843F0010323706420FFF7BDFF6420FFF7C0FF3220FFF7C3FF0020E3
:401B4000FFF7C6FF00F0F0F9237843F01003237000F0EEF9FFF7CEFF10BD00BF7B6400409B64004008B5054B1B7823B9FFF7CCFF0122024B1A70FFF791FF08BD4883FF1F6E
:401B8000024A137843F08003137070477D640040014B1880704700BF18680040014B1880704700BF98680040014B1880704700BF58680040014B1870704700BF8D640040B4
:401BC000014B1878704700BF6D640040014B188880B27047B868004008B501E0FFF7F6FFFFF7EEFF10F0100FF8D108BD10B5144A137803F0C00343F0090313701F32137832
:401C000043F0010313700F4C237843F0010323706420FFF7BDFF6420FFF7C0FF3220FFF7C3FF0020FFF7C6FF00F07EF9237843F01003237000F07CF9FFF7CEFF10BD00BF47
:401C40007D6400409D64004008B5054B1B7823B9FFF7CCFF0122024B1A70FFF791FF08BD4983FF1F024A137843F080031370704772640040014B1880704700BF04680040B3
:401C8000014B1880704700BF84680040014B1880704700BF44680040014B1870704700BF83640040014B1878704700BF63640040014B188880B27047A468004008B501E0CF
:401CC000FFF7F6FFFFF7EEFF10F0100FF8D108BD10B5144A137803F0C00343F0090313702032137843F0010313700F4C237843F0010323706420FFF7BDFF6420FFF7C0FF7D
:401D00003220FFF7C3FF0020FFF7C6FF00F00CF9237843F01003237000F00AF9FFF7CEFF10BD00BF726400409364004008B5054B1B7823B9FFF7CCFF0122024B1A70FFF799
:401D400091FF08BD4A83FF1F024A137843F080031370704778640040014B1880704700BF106A0040014B1880704700BF906A0040014B1880704700BF506A0040014B187070
:401D8000704700BF89640040014B1878704700BF69640040014B188880B27047B06A004008B501E0FFF7F6FFFFF7EEFF10F0100FF8D108BD08B5154A137803F0C00343F049
:401DC0000903137002F59072137843F0010313700132137843F0010313706420FFF7BCFF6420FFF7BFFF3220FFF7C2FF0020FFF7C5FF00F099F8064A137843F01003137029
:401E000000F096F8FFF7CCFF08BD00BF786400409964004008B5054B1B7823B9FFF7CAFF0122024B1A70FFF78FFF08BD4B83FF1F024A137843F08003137070477C64004035
:401E4000014B1880704700BF10680040014B1880704700BF90680040014B1880704700BF50680040014B1870704700BF8A640040014B1878704700BF6A640040014B1888A8
:401E800080B27047B068004008B501E0FFF7F6FFFFF7EEFF10F0100FF8D108BD08B5144A137803F0C00343F0090313701C32137843F0010313700132137843F0010313709F
:401EC0006420FFF7BDFF6420FFF7C0FF3220FFF7C3FF0020FFF7C6FF00F026F8054A137843F01003137000F023F8FFF7CDFF08BD7C6400409A64004008B5054B1B7823B971
:401F0000FFF7CCFF0122024B1A70FFF791FF08BD4C83FF1F000000000230800803D000BF01380046FCD17047EFF3108072B6704780F31088704700BF18484FF47F01026800
:401F40000A43026016486FF07F4102680A400260704714484FF080510160704772B611484FF000610160FFF773FA0F48006800F0F3F858B10C4800684FF080730B4A0C49C4
:401F80000FB40FB46FF00600004700BF6FF0060062B6004762B600DF08B0704720ED00E01CED00E004ED00E06883FF1FD91F0000951F0000EFF308800549086005480068D5
:401FC00080F3088870470248006880F3088870473C82FF1F3082FF1F411C8900154A11440968154A136899421AD0F0B444464D4656465F46F0B400B5104C9B002344EFF3CA
:4020000008851D60116089002144096881F3088802BC8E46F0BCA046A946B246BB46F0BC002806DB00B500F08BF802BC8E46FFF7D3BF7047B02A00003C83FF1F3482FF1F7D
:40204000F0B444464D4656465F46F0B400B5EFF3038308B48000174901440968164A0244EFF30883136088471448804704BC4FF08070024382F3038801BC8646F0BCA04684
:40208000A946B246BB46F0BC704780000A4901440A6882F3088804BC4FF08070024382F3038808BC9E46F0BCA046A946B246BB46F0BC7047882A00008083FF1FC1200000D9
:4020C00010B572B6034B1C68204600F00DF82046FFF7DBFFD881FF1F08B5024B1868FFF7AFFF08BDD881FF1F10B4104B53F820304FF0FF310BE00E4A52F823200B4941F829
:40210000202000240B4941F8234019461346B3F1FF3FF0D1B1F1FF3F04D0074B53F82120064B1A60084610BC704700BFF480FF1FF080FF1FF082FF1FE483FF1F3883FF1FF5
:4021400008B562B6FFF7C8FF72B600F041F8014B186808BD6883FF1F00280BDA20F000400130054B53F82000044B1B68181A18BF0120704701207047B02A00003C83FF1F57
:40218000054B53F82020054B53F820309A4201D101207047002070474481FF1F342A000008B5FFF793F9084B53F8203043B10022054B43F8202040F00040044B186008BDB1
:4021C000024B186008BD00BFF482FF1F6883FF1F38B5364B1C680022354B1A60354A52F82430013342F82430334B53F824502046FFF7C6FF012801D0A54204D103222F4B59
:4022000043F8242003E002222C4B43F824202C4B53F824102B4A136823EA010313602A4B53F82440214B1C60B5F1FF3F0FD0234B53F82530032B07D10222204B43F82520C6
:402240000022224B43F825202846FFF7A5F9FFF781F9B0F1FF3F0BD1B4F1FF3F03D00022164B43F8242044F00044194B1C6038BD184B53F82020134B1B689A4208D8002270
:402280000E4B43F8242044F00044114B1C6038BD00210A4A42F82010094A52F820201343084A1360FFF77CFF38BD00BFD881FF1F5883FF1F4481FF1F0881FF1FF081FF1F7C
:4022C000482A00003883FF1FDC81FF1F1C83FF1F6883FF1F742A0000014B1868704700BFA082FF1F0E4B70B51E460E4C0025E41AA410A54204D056F8253098470135F8E7CD
:4023000000F04EFC084B094C1E46E41AA4100025A54204D056F8253098470135F8E770BDAC2B0000AC2B0000AC2B0000B42B000010B5431E0A44914204D011F8014B03F832
:40234000014FF8E710BD03460244934202D003F8011BFAE77047000038B5124B05461C68A36BD3B9182000F059F843F20E33A06303804AF6CD33438041F2342383804EF284
:402380006D63C3804DF6EC630381052343810B23838101220023C0E90423A36B00221D615A6138BDA082FF1F194B10B51C68A36BD3B9182000F032F843F20E33A06303808D
:4023C0004AF6CD33438041F2342383804EF26D63C3804DF6EC630381052343810B23838101220023C0E90423A16B0A4C0B6948695C43094A02FB0040A3FB022301320344BD
:4024000043F10003C1E9042323F0004010BD00BFA082FF1F2DF451582D7F954C024B0146186800F003B800BFA082FF1F70B5CD1C25F0030508350C2D38BF0C25002D06461E
:4024400001DBA94202D90C23336046E000F05CF8234B1C681A462146A1B10B685B1B0ED40B2B03D90B60CC18CD501EE08C420BBF63684B681360636018BF0C4615E00C4680
:402480004968E9E7174C23681BB9304600F02CF820602946304600F027F8431C18D0C41C24F00304A0420DD12560304600F02DF804F10B00231D20F00700C31A0ED05A421B
:4024C000E25070BD211A304600F00EF80130EBD10C233360304600F018F8002070BD00BF5483FF1F5083FF1F38B5064C0023054608462360FEF7E6FA431C02D1236803B1FB
:402500002B6038BD0C89FF1F7047704700000000000001000100010001000100010001000100020002000200020002000200020002000200020002000200030003000300D1
:402540000300030003000300040004000400040004000400050005000500050005000600060006000600070007000700080008000800090009000A000A000A000B000B0093
:402580000C000C000D000D000E000F000F00100011001100120013001400150016001700180019001A001B001C001D001F0020002100230024002600280029002B002D00FB
:4025C0002F0031003400360038003B003D0040004300460049004C004F00530057005B005F00630067006C00700075007B00800086008C00920098009F00A600AD00B50057
:40260000BD00C500CE00D700E100EB00F50000010B011701240130013E014C015B016A017A018B019C01AF01C201D601EA01000217022E02470261027C029802B502D4026F
:40264000F402160339035D038303AB03D50300042D045D048E04C204F80430056B05A805E8052B067106BA0606075607A90700085B08B9081C098309EF09600AD50A500B7F
:40268000D10B560CE20C740D0D0EAC0E520F0010B510731138120713DF13C014AB15A116A117AD18C419E91A1A1C581DA51E00206B21E52271240E26BD278029562B412D7A
:4026C000422F5A318933D1353338B03A493D0040D542CB45E2481C4C7A4FFF52AC56825A845EB3621267A26B66706075927A0080AA85958BC3913798F59EFEA558AD04B536
:4027000008BD66C524CE44D7CCE0C0EA25F5FFFFFC60DAF266B6BEE0FEF6EE3E9C7A9E8E010000005265616374696F6E20746573742070726F6772616D20726F756E642054
:40274000000000000A5072657373206F6E65206F66207468652074776F20627574746F6E7320746F2073746172742E2E2E200A004772656174202D20436F7272656374208A
:40278000627574746F6E20707265737365640A5265616374696F6E2074696D6520696E206D733A004F6F70737373202D2077726F6E6720627574746F6E2070726573736599
:4027C00064200A004F6F70737373202D20546F6F20534C4F57200A0047414D45204F564552200A00417665726167652054696D6520696E206D733A00546F74616C20436F85
:4028000072726563742050726573733A00000000405100403000F0510040100000000140001000140140000800400140000A004C014000020050014020000000FF00010105
:402840000202020203030303030303030404040404040404040404040404040405050505050505050505050505050505050505050505050505050505050505050606060640
:402880000606060606060606060606060606060606060606060606060606060606060606060606060606060606060606060606060606060606060606060606060707070794
:4028C0000707070707070707070707070707070707070707070707070707070707070707070707070707070707070707070707070707070707070707070707070707070718
:4029000007070707070707070707070707070707070707070707070707070707070707070707070707070707070707070707070707070707070707070707070701000000F2
:40294000442900000200000001000000000000000800000000000000FFFFFFFF01000000000000000100000000000000FFFFFFFF01000000000000001000000000000000D4
:40298000FFFFFFFF00000000030000000000000000000000FFFFFFFF00000000040000000000000000000000FFFFFFFF00000000000000000000000000000000010000001B
:4029C00000000000000000000200000000000000000000000300000000000000000000000400000000000000000000000100000002000000030000000400000000000000C4
:402A000001000000020000000300000004000000FFFFFF7F0100000000000000200000000100000000000000000000000000000000000000010000000100000001000000EB
:402A40000100000001000000200000000800000080000000100000001000000001000000020000000400000008000000100000000000000020000000080000000100000044
:402A80001000000010000000F500000019010000B90000001D01000025010000D9200000D9200000D9200000D9200000D9200000000000000100000000000000000000000C
:402AC0000000000000000000616C726D5F736C6F77000000616C726D5F72616E646F6D54696D6500616C726D5F72657365740000616C726D5F676C6F77657200616C726D76
:402B00005F5469636B316D730000000065765F776169744F7665720065765F6C656674427574746F6E00000065765F7269676874427574746F6E000065765F736C6F7700DB
:402B400065765F7265736574000000007265735F7072696E7466000074736B5F6576656E7400000074736B5F6261636B67726F756E64000074736B5F696E697400000000B3
:402B800074736B5F676C6F776572000074736B5F617263616469616E0000000043000000F8B500BFF8BC08BC9E46704759000000410B0000F8B500BFF8BC08BC9E4670470A
:402BC00035000000D82B0000C880FF1FE0010000680600000000000000000000FFFF01001089FF1FC82A0000D42A0000E42A0000F02A0000FC2A000000000000FFFFFFFFF8
:402C0000FFFFFFFFFFFFFFFFFFFFFFFFFFFFFFFFFFFFFFFFFFFFFFFFFFFFFFFFFFFFFFFFFFFFFFFFFFFFFFFFFFFFFFFF01000000020000000300000004000000FFFFFFFFBA
:402C400005000000030000000000000004000000040000000100000001000000010000000100000001000000FFFFFFFFFFFFFFFFFFFFFFFFFFFFFFFFFFFFFFFFFFFFFFFF57
:402C8000FFFFFFFFFFFFFFFFFFFFFFFFFFFFFFFFFFFFFFFFFFFFFFFFFFFFFFFFFFFFFFFFFFFFFFFFFFFFFFFFFFFFFFFFFFFFFFFFFFFFFFFFFFFFFFFFFFFFFFFFFFFFFFFF54
:402CC000FFFFFFFFFFFFFFFFFFFFFFFFFFFFFFFFFFFFFFFFFFFFFFFFFFFFFFFFFFFFFFFFFFFFFFFFFFFFFFFFFFFFFFFFFFFFFFFFFFFFFFFFFFFFFFFFFFFFFFFFFFFFFFFF14
:402D000003000000030000000300000003000000030000000C2B0000182B0000282B0000382B0000402B00004C2B0000582B0000642B0000742B0000802B00008C2B00005F
:402D40007C87FF1F000000005085FF1F0000000000000000000000000000000000000000000000000000000000000000000000009C2B000000000000000000000000000078
:402D80000000000000000000000000000000000000000000000000000000000000000000000000000000000000000000000000004082FF1F00000000000000000000000033
:402DC00000000000000000000000000000000000000000000000000000000000000000000000000000000000000000000000000000000000000000000000000000000000D3
:402E00000000000000000000000000000000000000000000000000000000000000000000000000000000000000000000000000000000000000000000000000000000000092
:402E40000000000000000000000000000000000000000000000000000000000000000000000000000000000000000000000000000000000000000000000000000000000052
:402E80000000000000000000000000000000000000000000000000000000000000000000000000000000000000000000000000000000000000000000000000000000000012
:020000040003F7
:0200000480007A
:4000000008520040066400400365004041020140220301400305014056060140350701404A080140300901404B0A01402A0B0140440C0140260D01403F0E0140220F014069
:400040000B150140461601403617014057180140441901403C1A01404A1B0140034001400D41014006420140054301400C4501400446014001470140064801400449014081
:400080000E4C01400D4D01400850014001510140004001C0083509A31028111861806440830D890D8A0D8B0D8D0D8F0D860F88388B722201230127013001330136014010D6
:4000C000410649FF4AFF4BFF4DA04F0450185280580459045A045B045F01604062C06440654066C068C06AC06CC06EC09B019E01A101A602AA01B002B201B701BE04C040A2
:40010000C106C5D1C702C813C9FFCAFFCBFFCDAFCE0FCF04D018D405D804D904DA04DB04DF01E040E2C0E440E540E6C0E8C0EAC0ECC0EEC0098010201208168019061C40DF
:400140001D801F802240272029022C202F80302040404580482049014A084E08520859055A80768087208E04C201C416CAC1CC04D011D224D60BE240A080A604AC800002FA
:40018000010105060708080109010C0111061318150617081B101F0A2101260129142B082D0133013403371E382039083B803F0440144103450C47EB483149FF4AFF4BFF86
:4001C0004EF04F44500C580459045A045C115D015F0166C06A406B028409861087038A038C108F019302941C9602980C9A119B06A305A414A906AB01AC10AE0CB21FB50762
:40020000BB20C002C740C9FFCA07CBFFCC40CD20CEF0CF05D008D804D904DA04DC11DD01DF01E040E1A8E240E32000100202032006400709080809201188162018101D105A
:400240001F2020042120230825402604270128082A012B082C802D802E202F083202332035103680370938043A403F2642044540464147084F0452C2550456028B018C10CE
:40028000A080A604C0D7C206C425CAB5CCF5CEEAD0D4E080030204010801100116021B0120012A0230013101330236023E014030410649FF4AFF4BFF4DA04F045018528070
:4002C000580459045A045B045F01604062C06440654066C068C06AC06CC06EC08604880290019601AA04B001B204B402BB02BE14C030C106C5D1C702C813C9FFCAFFCBFF69
:40030000CDAFCE0FCF04D018D405D804D904DA04DB04DC10DF01E040E2C0E440E540E6C0E8C0EAC0ECC0EEC0012003100424080409010C040E200F8012081502171019146D
:400340001A401E801F80204021012501271036103C0241084508480849094C085008580159045A4064016640740181108D209D09A108A408C066C23CC452CC20CE80D04210
:40038000D224D60BE010E4040602120116041802260127012A0430023204340135013E044040410349FF4AFF4BFF4DA04F0450185405580459045A045B045F01604062C075
:4003C0006440654066C068C06AC06CC06EC087019202A602A901AA01AE04B004B201B402B701BE10C040C103C5D0C620C701C81AC9FFCAFFCBFFCDAFCE0FCF04D018D280CA
:40040000D405D804D904DA04DB04DF01E040E2C0E440E540E6C0E8C0EAC0ECC0EEC00108092A0D02100811081628174019041A401B201D021E081F042120264029082F04FA
:400440003E0841024220450246204D015504562859055A405D015E8877408F209D08A108AA40C004C21EC4E6CA22CE40D0C3D6DBEC012E0132014020410649FF4AFF4BFF88
:400480004DA04F045018528058045A045B045F01604062C06440654066C068C06AC06CC06EC086048A018B02930496049B039C02A602AA01B002B101B201B304B404B702CB
:4004C000BE04C030C106C5D1C702C813C9FFCAFFCBFFCDAFCE0FCF04D018D280D405D804D904DA04DB04DF01E040E2C0E440E540E6C0E8C0EAC0ECC0EEC0001001080908D2
:400500000A02102012081780180819041A401D0820102241232030203102381040104720482049014A084E08520859055A40710277808C04B101C006C205C486CC05CE04E8
:40054000D022D224D60B1701270131014030410649FF4AFF4BFF4DA04F04501859045A045F01604062C06440654066C068C06AC06CC06EC08A028B0196019F02A101AA0270
:40058000B302B402B601B701BE10C030C102C5D0C610C702C81AC9FFCAFFCBFFCDAFCE0FCF04D018D280D405D804D904DA04DB04DF01E040E2C0E440E540E6C0E8C0EAC0D7
:4005C000ECC0EEC004100F2016081E081F8021012410250826402B102F80310837403F2040104508460848044F015404560857105E885F017740C040C220C440CA82CC12E8
:40060000CE20D062D204D6D0831088058C088D019C0D9D01A710AC09B610E802EE0807010D011F01210225012B01310135023F115401560459045B045D105F0182048403DA
:4006400085048738880289308B0C8D048E048F1893209C039F0CA201A301A730AB02AF02B204B33CB403B703B820BB08BE14BF40C062C103C205C401C5C0C70EC812C9FF25
:40068000CAFFCBFFCC62CDA0CEF0CF41D00CD804D904DA04DC10DD01DF01E640E702E910EA30EB10ED10EE10EF12009601080308094012C01A1420112788280529012B2093
:4006C0002D092E022F0832823680381439403DC03F04402948414A0850085D215F88652267048208850290049304960498209A42A140A202A320A718B180B420C00FC201F3
:40070000C408CAEFCC19CE5ED00ED20CD6F0D880E204EC80EE080104050607010E011107150616011D072301250229012B06320137073E044020410649FF4AFF4BFF4DA0A4
:400740004F0450185418580459045A045B045C105D105F01604062C06440654066C068C06AC06CC06EC082C384188A048C1C8EC190DF94C098089C1C9EC2A010A480A84425
:40078000AA20ACC7AE18B0C0B420B61FBA80C020C103C501C60DC702C815C9FFCAFFCBFFCDAFCE0FCF04D018D804DA04DB04DC01DF01E040E2C0E440E540E6C0E8C0EAC038
:4007C000ECC0EEC0012803820702085109040D08100A1101130819221B401F04268028402B402C102E282F803441350C3C043D013E024104431047104A104E0851045248B1
:400800005D026680670868806A246B01700171A0721080128230860488808C048F02930294249B109E40A240A618A740AF80B440B701C08FC22FC40FCAE0CCD0CEC0D02612
:40084000D220D680D830E002E404EA4000030104020C040C050208040C08100F110714031506180F19061B011E031F01200C2106220323012402250127062801320F350720
:400880003A083B20580459045C115F01853E893E8D128F0C9524970A98019B01A301A501A801A908AB30AC01AD01B338B506B601B701B980D602D710D804D904DB04DC1156
:4008C000DD10DF0100AA080109840B040E08104813081550182019081D801F802004222023042504270A284029082C412D082E202F013001310432203380362037083A0A75
:400900003D103E845E806D506E0C74547504760A880989088A808B088D048E208F809302942498409C019D049E0A9F0AA240A408A504A780A9A0AA10AD08AE80B301B40164
:40094000B680C00FC24FC4CECAF3CC6FCE73D610E240E6E0E805EC1133803420CC3006020B100D046304670887048C209C20A780C080C230D8C0E240931097089A02A780C6
:40098000AD04E8108A02931097089A02A78052205C025D4060108E209802B002D404D605D802E008E8048D409540A810E00280018780A780AF04B310E610EE1003088308DA
:4009C000C040E480534156105F82600863016620830186108B409002D407D607D803E4011020700188209002AA20AB03B380B408C408DC01E604E802EC04000308010A02B0
:400A00000C030E0110031A021C03000F38C0C000C000000080004080800080000000000000FFFF00FF00000000393900390000000420200000000000000000000000000097
:400A40000000000000000000000000000000000000000000000000000000000000000000000000000000000000000000000000000000000000000000000000000000000076
:400A80000000000000000000000000000000000000000000000000000000000000000000000000000000000000000000000000000000000000000000000000000000000036
:400AC00000000000000000000000000000000000000000000000000000000000000000000000000000000000000000000000000000000000000000000000000000000000F6
:400B000000000000000000000000000000000000000000000000000000000000000000000000000000000000000000000000000000000000000000000000000000000000B5
:0200000490006A
:0400000003000007F2
:0200000490105A
:04000000BC90ACAF55
:0200000490303A
:02000000B1C786
:0200000490402A
:4000000000000000000000000000000000000000000000000000000000000000000000000000000000000000000000000000000000000000000000000000000000000000C0
:400040000000000000000000000000000000000000000000000000000000000000000000000000000000000000000000000000000000000000000000000000000000000080
:400080000000000000000000000000000000000000000000000000000000000000000000000000000000000000000000000000000000000000000000000000000000000040
:4000C0000000000000000000000000000000000000000000000000000000000000000000000000000000000000000000000000000000000000000000000000000000000000
:0200000490501A
:0C00000000012E16106900002E29C230ED
:00000001FF